:04000000C8EF0BF04A
:1000080000C01AF001C019F002C018F003C017F0C0
:1000180004C016F005C015F0E1CF21F0E2CF22F0C0
:10002800E9CF1FF0EACF20F0F5CF1EF0F8CF1BF094
:10003800F7CF1CF0F6CF1DF0BFEC0AF01EC0F5FF9D
:100048001BC0F8FF1CC0F7FF1DC0F6FF1AC000F068
:1000580019C001F018C002F017C003F016C004F070
:1000680015C005F01FC0E9FF20C0EAFF21C0E1FF6D
:0600780022C0E2FF1100AE
:10007E00000E056E040E066E8EC003F0000E046EAA
:10008E000336043603900336043603908FC000F017
:10009E00000E016E0036013600900050032601500E
:1000AE00042203C001F004C002F0013601900236B2
:1000BE0001360190023601C003F002C004F0043292
:1000CE000332049E04BC048E04320332049E04BC2C
:1000DE00048E03C000F004C001F00036009001361B
:1000EE00003600900136055000260650012200C051
:1000FE0005F001C006F000C0E1FF01C0E2FFE69E80
:10010E0000018F51000A12E18EC000F0000E016E48
:10011E00003600900136390E0024E16E000E0120EB
:10012E00E26E05C0E6FF06C0E6FF11D08EC000F0FD
:10013E00000E016E003600900136350E0024E16E81
:10014E00000E0120E26E05C0E6FF06C0E6FF05C008
:10015E00E1FF06C0E2FFE69C040E0524E16E000EF0
:08016E000620E26EE68C12008F
:0E017600800E00018E11006E00C064F01200B9
:100184008EC061F08FC062F090C065F091C066F0DF
:10019400800E00019211006E008000C064F0120015
:1001A4008EC061F08FC062F090C063F091C065F0C2
:1001B40092C066F0800E00019311006E00C064F0DE
:0201C400120027
:1001C60020C401F01F0E01160150010A01E08BD078
:1001D60004012451000A01E086D02151060A38E1C3
:1001E6002DD05F50010A13E1140E00018E6F180E18
:1001F6008F6F000E906F120E8E27000E8F239023A6
:10020600090E916F000E926F400E936FC8DF20D0DB
:100216005F50010A0EE100013D0E8E6F180E8F6FC2
:10022600000E906F210E916F000E926F400E936F2D
:10023600B6DF0ED000018E6B9BDF0AD0040123517E
:10024600210ACFE02351220AE3E02351230AF2E0F8
:1002560020C401F0600E0116050E006E005004E089
:100266000132019EFF0FFBD70150010A01E03BD08E
:1002760027D039D038D0600E00018E6F000E8F6FF8
:10028600010E906F000E916F400E926F78DF2BD0AB
:1002960000018E6B6DDF23C460F025D00001530E84
:1002A6008E6F000E8F6F010E906F000E916F926B26
:1002B60066DF19D000018E6B5BDF22C453F013D0CA
:1002C60004012151010AD5E02151090AD3E0215147
:1002D600020AD1E021510A0ADBE02151030ADEE0DD
:0802E60021510B0AE7E01200B0
:1002EE00700EE16E0F0EE26E00018951E126D8B05C
:1002FE00E22A8AC0E6FF8AA504D089C08EF08F6BF1
:10030E00B7DE8AA305D089C08EF0010E8F6FB0DEE6
:02031E001200CB
:1003200000018A51000A12E089C000F0000E016E3F
:10033000003600900136350E0024E96E000E0120D3
:10034000EA6EEECF04F0EECF05F011D089C000F0D8
:10035000000E016E003600900136390E0024E96E61
:10036000000E0120EA6EEECF04F0EECF05F0020E93
:100370000424E16E000E0520E26E8BC0E6FF8CC007
:10038000E6FF010E0424E16E000E0520E26E8DC032
:10039000E6FF04C0E9FF05C0EAFFEECF00F004C0AD
:1003A000E1FF05C0E2FF400E0014E66E04C0E9FF65
:1003B00005C0EAFFEECF00F004C0E1FF05C0E2FF98
:1003C000880E0010E66E8A51000A1BE089C000F01A
:1003D000000E016E003600900136350E0024026ECC
:1003E000000E0120036E02C0E9FF03C0EAFF040E05
:1003F000EE18006E02C0E1FF03C0E2FF00C0E6FF9E
:100400001AD089C000F0000E016E0036009001364F
:10041000390E0024026E000E0120036E02C0E9FFB7
:1004200003C0EAFF040EEE18006E02C0E1FF03C035
:10043000E2FF00C0E6FF04C000F005C001F01200BA
:100440005C5215E0010E0001896F1E0E8A6F4FDFAE
:10045000010E896F8A6B54C08BF055C08CF0400E32
:100460008D6F5EDF00C05DF001C05EF014D0000152
:10047000010E896F1E0E8A6F3ADF010E896F8A6B3B
:1004800054C08BF055C08CF0400E8D6F49DF00C01A
:080490005DF001C05EF01200F6
:080498005C5201E094DE120049
:1004A00083C002F084C003F086C000F087C001F072
:1004B000010E0001865F000E875B0050011009E00D
:1004C00002C0E1FF03C0E2FF85C0E6FF024A032A43
:0404D000EBD7120054
:1004D4000CD0B4DF3CD03BD0DDDF39D038D037D0BE
:1004E40036D035D0000033D032D0000E000184194C
:1004F40002E1010E8319EDE0000E841902E1020EFF
:100504008319E9E0000E841902E1030E8319E4E083
:100514008451000A02E1730E8319E0E08451000A59
:1005240002E1750E8319DBE08451000A02E1740EC6
:100534008319D6E084513F0A02E1FF0E8319D1E00A
:100544008451000A02E1720E8319CCE0CDD7010E6A
:04055400006E120023
:100558000B6A0A6A096A00500402F4CF09F0F3CF63
:1005680008F001500502F4CF0BF0F3CF0AF0005069
:100578000502F3500926F4500A22E86A0B220150BA
:100588000402F3500926F4500A22E86A0B2208C034
:1005980000F009C001F00AC002F00BC003F012001D
:1005A800F250026EF29E0500FF6A0150FE6E005086
:0805B800FD6E02BEF28E12007E
:1005C00004012051800AD8A479D0C00E0001646FC4
:1005D0006AD00001780E006E180E016E000E026ED9
:1005E00000C061F001C062F002C063F0120E656FDE
:1005F000000E666F63D00001030E006E000E016EE8
:1006000022C404F0000E056EA7DF230E0024E96E5D
:10061000000E0120EA6EEECF61F0EECF62F0EECF79
:1006200063F0020E6125F66E000E6221F76E000E79
:100630006321F86E0900F5CF00F00900F5CF01F055
:1006400000C065F001C066F039D0030E0401225DE0
:1006500024E2030E006E000E016E22C404F0000EB0
:10066000056E7ADF260E0024E96E000E0120EA6E88
:10067000EECF61F0EECF62F0EECF63F061C0F6FF37
:1006800062C0F7FF63C0F8FF0900F5CF00F000C0BB
:1006900065F0000E0001666F02D00001646B0ED0A1
:1006A0000001646B0BD004012351010A92E0235135
:0E06B000020AA1E02351030AC8E0F2D71200AB
:1006BE000001648F710E836F0F0E846F856B010EB8
:1006CE00866F000E876FE5DE4F0E836F000E846F10
:1006DE00856B010E866F000E876FDBDE22C45FF026
:1006EE005F50000A03E1100E326E0FD0200E326EF4
:1006FE00010E836F000E846F5F0E856F000E866F86
:0C070E00010E876F000E886FDEDE120007
:10071A00000E0001665D02E1080E655D10E265C02B
:10072A0003F066C004F04D50000A03E1010E4D6E5D
:10073A0005D04D50010A02E1020E4D6E04D0080E9A
:10074A00036E000E046E000135C0E1FF36C0E2FF01
:10075A00E69235C0E1FF36C0E2FFE69035C0E9FF18
:10076A0036C0EAFFEECF00F035C0E1FF36C0E2FF47
:10077A0004500010E66E010E3524E16E000E36209C
:10078A00E26E03C0E6FF0350655D006E04506659D1
:10079A00016E00C065F001C066F0280E516E040EAD
:1007AA00526E64B12FD0035004102BE061C0F6FFE3
:1007BA0062C0F7FF63C0F8FF0900F5CF00F051C02F
:1007CA00E1FF52C0E2FF00C0E6FF514A522A010E81
:1007DA006125006E000E6221016E000E6321026E19
:1007EA0000C061F001C062F002C063F0010E035C58
:1007FA00006E000E0458016E00C003F001C004F040
:10080A00D2D724D00350041021E061C0E9FF62C0AE
:10081A00EAFF51C0E1FF52C0E2FFEECFE6FF514AC4
:10082A00522A010E6125006E000E6221016E00C07F
:10083A0061F001C062F0010E035C006E000E045804
:0E084A00016E00C003F001C004F0DCD7120004
:1008580004012251010A11E120C401F01F0E011602
:100868000150000A0AE10001648F04012151030AC2
:1008780003E1010E506E01D0506A2251000AD8A43B
:100888008BD020C401F01F0E01160150020AD8A413
:1008980083D024C401F00F0E01160150000AD8B409
:1008A8007BD00001648F040124BF16D024C403F058
:1008B8000F0E031603C000F0000E016E0036009004
:1008C8000136390E0024E96E000E0120EA6EEECFE3
:1008D80004F0EECF05F015D024C403F00F0E031674
:1008E80003C000F0000E016E003600900136350E90
:1008F8000024E96E000E0120EA6EEECF04F0EECF80
:1009080005F02151030A07E104C0E1FF05C0E2FF39
:10091800840EE66E41D024C400F00F0E0016700E4F
:10092800026E0F0E036E00500226D8B0032A02C0D2
:10093800E9FF03C0EAFFEECF00F0EECF01F0009030
:1009480002C0E1FF03C0E2FF00C0E6FF01C0E6FF0E
:1009580024AF11D004C0E1FF05C0E2FFE66A040E2F
:100968000418006E00C004F004C0E1FF05C0E2FFF7
:10097800400EE66E11D004C0E1FF05C0E2FF880E0C
:10098800E66E040E0418006E00C004F004C0E1FF17
:0A09980005C0E2FFC80EE66E120073
:1009A2000401286B296B48D00001648F040128815F
:1009B2005050010AD8B4288354D00001648F51D01A
:1009C2000001648F040124BF16D024C403F00F0E6B
:1009D200031603C000F0000E016E003600900136CF
:1009E200390E0024E96E000E0120EA6EEECF04F00B
:1009F200EECF05F015D024C403F00F0E031603C08A
:100A020000F0000E016E003600900136350E002413
:100A1200E96E000E0120EA6EEECF04F0EECF05F093
:100A220004C0E9FF05C0EAFFEECF01F001A403D044
:100A32000401010E286F15D020C401F01F0E01160B
:100A42000150000AB1E020C401F01F0E011601504E
:100A5200010AB3E020C401F01F0E01160150020A80
:100A6200AFE0000164AF07D0280E616F040E626F21
:080A72006481020E656F1200A1
:100A7A00476A35C0E1FF36C0E2FFE66A040E351860
:100A8A00E16E36C0E2FF000EE21AE66A000169AFC3
:100A9A0014D0000E006E6F1908E100506E1905E1BE
:100AAA0000506D1902E16C51000A05E06CC000F0BB
:0C0ABA006DC001F074DD0001699F1200A6
:100AC600010E4924E96E000E4A20EA6EEECF00F0D0
:100AD60000C081F0000E00016B5D02E181516A5D8C
:100AE60003E26AC081F00AD081516A5D006E000E91
:100AF6006B59016E00C06AF001C06BF0826B8151C8
:100B0600825D1CE2280EE96E040EEA6E8251E92629
:100B1600D8B0EA2AEECF00F067C0E1FF68C0E2FF76
:100B260000C0E6FF010E6725006E000E6821016E0B
:100B360000C067F001C068F0822BE1D7000E006E9E
:100B46006B51005C02E16A51000828E2010E4B2459
:100B5600E16E000E4C20E26E080EE66E020E4B248D
:100B6600E16E000E4C20E26E280EE66E040EE66E76
:100B760049C0E9FF4AC0EAFFEECF00F000BC07D04B
:100B86004BC0E1FF4CC0E2FFC80EE66E06D04BC07C
:100B9600E1FF4CC0E2FF880EE66E2CD0010E4B241E
:100BA600E16E000E4C20E26E080EE66E020E4B243D
:100BB600E16E000E4C20E26E200EE66E040EE66E2E
:100BC6004BC0E1FF4CC0E2FF840EE66E000E006EE5
:100BD6006F1908E100506E1905E100506D1902E128
:100BE6006C51000A05E06CC000F06DC001F0D9DC64
:060BF6000001699F1200DE
:100BFC0020C401F0600E0116050E006E005004E0DA
:100C0C000132019EFF0FFBD70150000A01E067D0B3
:100C1C0043D00001648F080E326E61D0CBDC5FD004
:100C2C0048DD5DD05F0E0001616F000E626F648164
:100C3C00010E656F648F53D0AEDE51D007DE4FD0FE
:100C4C004F0E006E000E016E24510026D8B0012A02
:100C5C0000C061F001C062F000016481010E656F9B
:100C6C00648F3DD00001648F4F0EE16E000EE26E7A
:100C7C0004012451E126D8B0E22A22C4E6FF2FD089
:100C8C00020E0001836F000E846F856B866B876B81
:100C9C00886B1ADC24D023D004012151050AB9E059
:100CAC002151060ABBE02151090ABAE02151080A78
:100CBC00B9E02151000AC0E02151010ABFE02151E5
:100CCC00030ABCE021510A0ABBE021510B0ACAE01D
:100CDC002151070AD5E021510C0ADDE0DCD71200C6
:100CEC006D98000164BF49D069AF28D0020E476EE1
:100CFC00010E3524E16E000E3620E26EE66A35C038
:100D0C00E1FF36C0E2FFC80EE66E010E4B24E16E29
:100D1C00000E4C20E26E080EE66E020E4B24E16EC5
:100D2C00000E4C20E26E280EE66E040EE66E4BC0F2
:100D3C00E1FF4CC0E2FFC80EE66E1ED0010E4B2444
:100D4C00E16E000E4C20E26E080EE66E020E4B2495
:100D5C00E16E000E4C20E26E200EE66E040EE66E86
:100D6C004BC0E1FF4CC0E2FF8C0EE66E35C0E1FFDC
:100D7C0036C0E2FF840EE66E81D069BF7FD00401DD
:100D8C0020AF55D0000166510401275D04E100013C
:100D9C0065510401265D04E226C465F027C466F0A3
:100DAC00B6DC010E476E010E4B24E16E000E4C209A
:100DBC00E26E080EE66E020E4B24E16E000E4C2025
:100DCC00E26E200EE66E040EE66E4BC0E1FF4CC0E8
:100DDC00E2FF800EE66E486A010E4924E16E000EB9
:100DEC004A20E26E080EE66E020E4924E16E000EF9
:100DFC004A20E26E200EE66E040EE66E49C0E1FF5C
:100E0C004AC0E2FF840EE66E010E486E020E3524D7
:100E1C00E16E000E3620E26E280EE66E040EE66ED3
:100E2C0035C0E1FF36C0E2FFC80EE66E27D0020ED9
:100E3C00476E010E3524E16E000E3620E26EE66A36
:100E4C0035C0E1FF36C0E2FFC80EE66E010E4B2442
:100E5C00E16E000E4C20E26E080EE66E020E4B2484
:100E6C00E16E000E4C20E26E280EE66E040EE66E6D
:0E0E7C004BC0E1FF4CC0E2FFC80EE66E120054
:100E8A0035C0E9FF36C0EAFFEECF00F0000E00BC25
:100E9A00010E0001806F040E3518006E00C035F097
:100EAA003250080A0AE122C46EFF6E50000803E2BB
:100EBA00100E326E02D0040E326E4750010A2BE138
:100ECA00020E3524E16E000E3620E26E280E006E08
:100EDA00040E016E00C0E6FF01C0E6FF19DC4D50AA
:100EEA00020A07E135C0E1FF36C0E2FF840EE66E72
:100EFA0011D000018051000A07E135C0E1FF36C078
:100F0A00E2FFC80EE66E06D035C0E1FF36C0E2FF4A
:0A0F1A00880EE66E01D0ACDD120077
:100F24004750020A02E1CDDD1ED0A5DD4850000A7B
:100F340019E1010E4B24E16E000E4C20E26E080E06
:100F4400E66E020E4B24E16E000E4C20E26E200E83
:100F5400E66E040EE66E4BC0E1FF4CC0E2FF8C0E61
:080F6400E66E01D0486A12009C
:100F6C0035C0E9FF36C0EAFFEECF00F000AE05D089
:100F7C0035C0E1FF36C0E2FFE66A4D6A476A000100
:100F8C00656B666B646B34DE030E0001836F000EC1
:100F9C00846F856B866B876B886B6AEC02F0A0DEC6
:020FAC00120031
:100FAE00140E236E180E246E000E256E8A0E266EFB
:100FBE00180E276E000E286E5E0E296E180E2A6E03
:100FCE00000E2B6EEA0E2C6E170E2D6E000E2E6E70
:020FDE001200FF
:0E0FE000160E6F6E9F0E6B6E7B0E696E12000A
:100FEE00000E00017A1902E1000E791902E1016A80
:100FFE0009D079C0E9FF7AC0EAFFEECF00F0016AAE
:0A100E0000BE012A01C000F012002C
:0A101800D08EA28AA08AF28E120088
:1010220079C002F07AC003F07CC000F07DC001F00C
:10103200010E00017C5F000E7D5B0050011009E093
:1010420002C0E1FF03C0E2FF7BC0E6FF024A032ABF
:04105200EBD71200C6
:1010560000017A51000A12E079C000F0000E016E1C
:10106600003600900136350E0024E96E000E012090
:10107600EA6EEECF04F0EECF05F011D079C000F0A5
:10108600000E016E003600900136390E0024E96E1E
:10109600000E0120EA6EEECF04F0EECF05F0020E50
:1010A6000424E16E000E0520E26E7BC0E6FF7CC0E4
:1010B600E6FF010E0424E16E000E0520E26E7DC0FF
:1010C600E6FF04C0E9FF05C0EAFFEECF00F004C06A
:1010D600E1FF05C0E2FF400E0014E66E04C0E9FF22
:1010E60005C0EAFFEECF00F004C0E1FF05C0E2FF55
:1010F600880E0010E66E7A51000A1BE079C000F0F7
:10110600000E016E003600900136350E0024026E88
:10111600000E0120036E02C0E9FF03C0EAFF040EC1
:10112600EE18006E02C0E1FF03C0E2FF00C0E6FF5A
:101136001AD079C000F0000E016E0036009001361C
:10114600390E0024026E000E0120036E02C0E9FF74
:1011560003C0EAFF040EEE18006E02C0E1FF03C0F2
:10116600E2FF00C0E6FF04C000F005C001F0120077
:10117600200E325C03E36DB201D002D0006A33D098
:1011860033C079F034C07AF02FDF00522BE177C0FC
:1011960079F0010E7A6F74C07BF075C07CF076C072
:1011A6007DF056DF00C033F001C034F0586A596A4A
:1011B6005A6A5B6A33C079F034C07AF015DF0052A0
:1011C60008E0585059105A105B1002E0006A0BD024
:1011D600F1D7010E3324E96E000E3420EA6EEECF0D
:0811E60000F001D0006A1200C4
:1011EE00FD0E4E14016E026AFF0E0216000E02185C
:1011FE0002E1000E01186CE17E0E4E14016E01C06C
:10120E0003F00332039E03C000F0000E016E0036A1
:10121E0000900136003600900136000E0024026E5A
:10122E00040E0120036E02C049F003C04AF002C052
:10123E004BF003C04CF0040E4B18006E00C04BF088
:10124E0002C0E9FF03C0EAFFEECF00F000C001F0DC
:10125E003C0E01160132019E0132019E01500D0A13
:10126E0035E1020E4924E96E000E4A20EA6EEECFF9
:10127E0001F0EECF02F00250040A02E1280E01182E
:10128E0023E1020E4924E16E000E4A20E26E200E8A
:10129E00E66E040EE66E00017F6B080E7F5D14E2B3
:1012AE00200EE16E040EE26E7F51E126D8B0E22AE6
:1012BE00280EE96E040EEA6E7F51E926D8B0EA2AAE
:1012CE00EECFE6FF7F2BE9D74ADE01D024DE0DD02C
:1012DE00FD0E4E14016E026AFF0E0216000E02186B
:0C12EE0002E1040E011801E1C9DD12004C
:1012FA0059DE5D6A5E6A336A346A6A6A686A6BDEF4
:10130A006D8C6E6A710E0001796F0F0E7A6F7B6BAE
:10131A00010E7C6F000E7D6F7FDE6D9C746B080E74
:10132A00745D16E274C000F0000E016E0036009083
:10133A000136003600900136000E0024E16E040EDC
:10134A000120E26EE66AE66AE66AE66A742BE7D785
:10135A00160E706E68A603D0F70E6816FBD7646B7C
:10136A00696B6A6B6B6B6D98080E356E040E366E80
:06137A005F6A326A1200F6
:101380003250000A0AE16D6A696A2ADE45DE6DB6EE
:0C13900002D06D86FCD7010E326E1200F8
:10139C00200E325C03E36DB201D002D0006A23D080
:1013AC005DC079F05EC07AF01CDE00521BE1010ECC
:1013BC005D24E96E000E5E20EA6EEECF00F000C0F8
:1013CC0078F077C079F07A6B74C07BF075C07CF0E4
:1013DC0076C07DF03ADE00C05DF001C05EF078C0F2
:0813EC0000F001D0006A1200BC
:1013F40070A019D049C0E9FF4AC0EAFFEECF01F05E
:101404000150800A0FE135C0E9FF36C0EAFFEECF94
:1014140001F00150840A06E149C0E1FF4AC0E2FF3D
:0C1424008C0EE66E7090DF0E6816120051
:10143000740E0001836F000E846F856B866B876B63
:10144000886B6AEC02F06D92699468A403D0FB0E7D
:061450006816FBD7120034
:04145600A19A120045
:10145A006984EF0E68166D82750E0001836F000EA7
:10146A00846F856B866B876B886B6AEC02F012005F
:10147A0099DD5D6A5E6A336A346A6A6A686AABDDF4
:10148A006D8C6E6A710E0001836F0F0E846F856B0F
:10149A00010E866F000E876F50EC02F06D9C7F6B19
:1014AA00080E7F5D16E27FC000F0000E016E003666
:1014BA0000900136003600900136000E0024E16EDD
:1014CA00040E0120E26EE66AE66AE66AE66A7F2BA5
:1014DA00E7D7160E706E68A603D0F70E6816FBD70C
:1014EA00646B696B6A6B6B6B6D98080E356E040ED4
:0814FA00366E5F6A326A1200CF
:101502000900F5CFE6FF0006FBE10106F9E1120052
:10151200010E5C6E70C054F071C055F072C056F08E
:1015220073C057F0E9DE010E016E0150010A01E1BC
:0415320026DF12009E
:1015360010D00F0EC112070EB412FF0E956E936AED
:101546000FD00F0EC112070EB412FF0E956E936ADE
:1015560007D000017051000AECE07051020AF1E078
:02156600120071
:1015680070C074F071C075F072C076F0010E0001A1
:06157800776FFDDD12009B
:10157E003250010A07E16DBA05D0686A6980698840
:10158E00020E326E68A405D069A403D0FB0E681655
:10159E0048DF6DA202D058DF78D068A018D069A0BD
:1015AE0016D064DF040E326E200E0401026F040E9C
:1015BE00036F080E016F000E0015006E00C000F4E0
:1015CE008C0E0011006E00C000F4FE0E681668A8A6
:1015DE0005D069A803D03ADFEF0E681668AC11D0BB
:1015EE0069AC0FD0730E0001836F000E846F856B94
:1015FE00866B010E876F000E886F6AEC02F0BF0ECD
:10160E00681668AA03D069AA01D0EDDE68A210D0D0
:10161E0069A20ED0FF0E0001836F3F0E846F856BA3
:10162E00866B010E876F000E886F6AEC02F06A6A95
:10163E00040E325C02E208DF28D069A625D0000134
:10164E007E6B040E7E5D20E268A61AD06CCF4EF043
:10165E00F70E6816780E4E14016E0150000A02E164
:10166E00BFDD0DD0720E0001836F000E846F4E0E23
:10167E00856F000E866F876B886B6AEC02F001D067
:0C168E0003D000017E2BDDD7DFDE120050
:10169A0054C074F055C075F0400E0001766F010E0B
:0616AA00776F77DE1200ED
:1016B00083CF40F0F00E4014026E02C001F0013200
:1016C000019E0132019E0132019E0132019E19D01C
:1016D000416A0F0E4014416E3E8031D03F6A0F0EBA
:1016E00040143F6E3E822BD0426A0F0E4014426E71
:1016F000458025D0466A0F0E4014466E45821FD0A5
:101700001ED00150010AE4E00150020AE7E0015056
:10171000030AEAE00150040AEDE00150050AF0E096
:101720000150060AEDE00150070AEAE00150080AFC
:10173000E7E00150090AE4E001500A0AE1E0030E83
:101740003E6E3FC043F043364390433643904336AA
:10175000439043364390415043123E6A030E456E18
:1017600046C044F044364490443644904436449055
:101770004436449042504412456A43C043F544C045
:1017800044F53DC045F52FC046F530C047F5120081
:101790000F0EC112070EB412FF0E956E936A316AD6
:1017A000000E0001706F050E716F420E726F050E14
:1017B000736FAFDE72DF005201E1FCD700C581FF1D
:1017C0003FC531F075DF83CF42F5420E0001706FE7
:1017D000050E716F400E726FC7DE005201E1F5D742
:0A17E00031C070F0A8DEE6D7FFD795
:1017EA002A035600690072007400750061006C00DB
:1017FA00200050004C004300200054006500720095
:0A180A006D0069006E0061006C00C3
:1018140009022900010100803209040000020300CA
:101824000000092101010001222100070581034074
:0918340000010705010340000159
:10183D000600FF0901A10119012940150026FF002D
:10184D00750895408102190129407508954091024E
:01185D00C0CA
:10185E001A034D0069006700750065006C002000DA
:0A186E00530069006C007600610071
:101878001201000200000008953901000100010270
:0218880000015D
:04188A000403090446
:020000040030CA
:0E000000240E3F1EFF0381FF0FC00FE00F40D4
:00000001FF
