:0400000028EF0BF0EA
:1000080000C01BF001C01AF002C019F003C018F0BC
:1000180004C017F005C016F00BC015F0E1CF22F0B0
:10002800E2CF23F0E9CF20F0EACF21F0F5CF1FF09F
:10003800F8CF1CF0F7CF1DF0F6CF1EF08EEC0AF0CB
:100048001FC0F5FF1CC0F8FF1DC0F7FF1EC0F6FF5C
:100058001BC000F01AC001F019C002F018C003F06C
:1000680017C004F016C005F015C00BF020C0E9FF5A
:0E00780021C0EAFF22C0E1FF23C0E2FF110019
:10008600000E056E040E066E82C003F0000E046EAE
:1000960003360436039003360436039083C000F01B
:1000A600000E016E00360136009000500326015006
:1000B600042203C001F004C002F0013601900236AA
:1000C60001360190023601C003F002C004F004328A
:1000D6000332049E04BC048E04320332049E04BC24
:1000E600048E03C000F004C001F000360090013613
:1000F600003600900136055000260650012200C049
:1001060005F001C006F000C0E1FF01C0E2FFE69E77
:1001160000018351000A12E182C000F0000E016E58
:10012600003600900136440E0024E16E000E0120D8
:10013600E26E05C0E6FF06C0E6FF11D082C000F001
:10014600000E016E0036009001364A0E0024E16E64
:10015600000E0120E26E05C0E6FF06C0E6FF05C000
:10016600E1FF06C0E2FFE69C040E0524E16E000EE8
:080176000620E26EE68C120087
:0E017E00800E00018211006E00C053F01200CE
:10018C0082C050F083C051F084C054F085C055F04B
:10019C00800E00018611006E008000C053F012002A
:1001AC0082C050F083C051F084C052F085C054F02E
:1001BC0086C055F0800E00018711006E00C053F010
:0201CC0012001F
:1001CE0020C401F01F0E01160150010A01E08BD070
:1001DE0004012451000A01E086D02151060A38E1BB
:1001EE002DD000016351010A12E1080E826F170E25
:1001FE00836F000E846F120E8227000E83238423DA
:10020E00090E856F000E866F400E876FC8DF20D0F7
:10021E0000016351010A0DE1530E826F170E836FB9
:10022E00000E846F210E856F000E866F400E876F55
:10023E00B6DF0ED00001826B9BDF0AD00401235182
:10024E00210ACFE02351220AE3E02351230AF2E0F0
:10025E0020C401F0600E0116050E006E005004E081
:10026E000132019EFF0FFBD70150010A01E03BD086
:10027E0027D039D038D02D0E0001826F000E836F3B
:10028E00010E846F000E856F400E866F78DF2BD0C7
:10029E000001826B6DDF23C42DF025D000012C0EE2
:1002AE00826F000E836F010E846F000E856F866B5A
:1002BE0066DF19D00001826B5BDF22C42CF013D0F5
:1002CE0004012151010AD5E02151090AD3E021513F
:1002DE00020AD1E021510A0ADBE02151030ADEE0D5
:0802EE0021510B0AE7E01200A8
:1002F600700EE16E0F0EE26E00017D51E126D8B060
:10030600E22A7EC0E6FF7EA504D07DC082F0836B24
:10031600B7DE7EA305D07DC082F0010E836FB0DE0E
:020326001200C3
:1003280000017E51000A12E07DC000F0000E016E4F
:100338000036009001364A0E0024E96E000E0120B6
:10034800EA6EEECF04F0EECF05F011D07DC000F0DC
:10035800000E016E003600900136440E0024E96E4E
:10036800000E0120EA6EEECF04F0EECF05F0020E8B
:100378000424E16E000E0520E26E7FC0E6FF80C017
:10038800E6FF010E0424E16E000E0520E26E81C036
:10039800E6FF04C0E9FF05C0EAFFEECF00F004C0A5
:1003A800E1FF05C0E2FF400E0014E66E04C0E9FF5D
:1003B80005C0EAFFEECF00F004C0E1FF05C0E2FF90
:1003C800880E0010E66E7E51000A1BE07DC000F02A
:1003D800000E016E0036009001364A0E0024026EAF
:1003E800000E0120036E02C0E9FF03C0EAFF040EFD
:1003F800EE18006E02C0E1FF03C0E2FF00C0E6FF96
:100408001AD07DC000F0000E016E00360090013653
:10041800440E0024026E000E0120036E02C0E9FFA4
:1004280003C0EAFF040EEE18006E02C0E1FF03C02D
:10043800E2FF00C0E6FF04C000F005C001F01200B2
:10044800295215E0010E00017D6F1E0E7E6F4FDFF1
:10045800010E7D6F7E6B24C07FF025C080F0400EBA
:10046800816F5EDF00C057F001C058F014D0000162
:10047800010E7D6F1E0E7E6F3ADF010E7D6F7E6B63
:1004880024C07FF025C080F0400E816F49DF00C096
:0804980057F001C058F01200FA
:0804A000295201E094DE120074
:1004A80077C002F078C003F07AC000F07BC001F09A
:1004B800010E00017A5F000E7B5B0050011009E01D
:1004C80002C0E1FF03C0E2FF79C0E6FF024A032A47
:0404D800EBD712004C
:1004DC000CD0B4DF3CD03BD0DDDF39D038D037D0B6
:1004EC0036D035D0000033D032D0000E0001781950
:1004FC0002E1010E7719EDE0000E781902E1020E0F
:10050C007719E9E0000E781902E1030E7719E4E09F
:10051C007851000A02E1730E7719E0E07851000A75
:10052C0002E1750E7719DBE07851000A02E1740ED6
:10053C007719D6E078513F0A02E1FF0E7719D1E026
:10054C007851000A02E1720E7719CCE0CDD7010E7A
:04055C00006E12001B
:100560000B6A0A6A096A00500402F4CF09F0F3CF5B
:1005700008F001500502F4CF0BF0F3CF0AF0005061
:100580000502F3500926F4500A22E86A0B220150B2
:100590000402F3500926F4500A22E86A0B2208C02C
:1005A00000F009C001F00AC002F00BC003F0120015
:1005B000F250026EF29E0500FF6A0150FE6E00507E
:0805C000FD6E02BEF28E120076
:1005C80004012051800AD8A471D0C00E536E64D0A3
:1005D800940E006E170E016E000E026E00C050F0F1
:1005E80001C051F002C052F0120E546E000E556E4A
:1005F8005DD0030E006E000E016E22C404F0000EE2
:10060800056EAADF380E0024E96E000E0120EA6E9E
:10061800EECF50F0EECF51F0EECF52F0020E502454
:10062800F66E000E5120F76E000E5220F86E09008B
:10063800F5CF00F00900F5CF01F000C054F001C07B
:1006480055F034D0030E225D23E2030E006E000E37
:10065800016E22C404F0000E056E7EDF3B0E0024FE
:10066800E96E000E0120EA6EEECF50F0EECF51F0A9
:10067800EECF52F050C0F6FF51C0F7FF52C0F8FF5E
:100688000900F5CF00F000C054F0000E556E01D0FF
:10069800536A0CD0536A0AD02351010A99E02351B6
:0E06A800020AA7E02351030ACDE0F4D71200A6
:1006B600538E710E0001776F0F0E786F796B010EF6
:1006C6007A6F000E7B6FEDDE4F0E776F000E786F40
:1006D600796B010E7A6F000E7B6FE3DE22C463F046
:1006E6006351000A03E1100E626F0FD0200E626F95
:1006F600010E776F000E786F630E796F000E7A6FBA
:0C070600010E7B6F000E7C6FE6DE12001F
:10071200000E555C02E1080E545C10E254C003F076
:1007220055C004F03650000A03E1010E366E05D0C2
:100732003650010A02E1020E366E04D0080E036E34
:10074200000E046E4AC0E1FF4BC0E2FFE6924AC0CF
:10075200E1FF4BC0E2FFE6904AC0E9FF4BC0EAFF6F
:10076200EECF00F04AC0E1FF4BC0E2FF04500010A0
:10077200E66E010E4A24E16E000E4B20E26E03C0CB
:10078200E6FF0350545C006E04505558016E00C0E1
:1007920054F001C055F0280E276E040E286E53B097
:1007A2002FD0035004102BE050C0F6FF51C0F7FFCA
:1007B20052C0F8FF0900F5CF00F027C0E1FF28C0C2
:1007C200E2FF00C0E6FF274A282A010E5024006EED
:1007D200000E5120016E000E5220026E00C050F039
:1007E20001C051F002C052F0010E035C006E000E17
:1007F2000458016E00C003F001C004F0D2D724D027
:100802000350041021E050C0E9FF51C0EAFF27C0A5
:10081200E1FF28C0E2FFEECFE6FF274A282A010EB9
:100822005024006E000E5120016E00C050F001C035
:1008320051F0010E035C006E000E0458016E00C000
:0A08420003F001C004F0DCD712003F
:10084C0004012251010A0FE120C401F01F0E011610
:10085C000150000A08E1538E2151030A03E1010EF5
:10086C00376E01D0376A2251000AD8A489D020C42F
:10087C0001F01F0E01160150020AD8A481D024C425
:10088C0001F00F0E01160150000AD8B479D0538E26
:10089C0024BF16D024C403F00F0E031603C000F0BF
:1008AC00000E016E003600900136440E0024E96EF5
:1008BC00000E0120EA6EEECF04F0EECF05F015D05D
:1008CC0024C403F00F0E031603C000F0000E016EDB
:1008DC000036009001364A0E0024E96E000E01200D
:1008EC00EA6EEECF04F0EECF05F02151030A07E1DA
:1008FC0004C0E1FF05C0E2FF840EE66E41D024C4C3
:10090C0000F00F0E0016700E026E0F0E036E0050EC
:10091C000226D8B0032A02C0E9FF03C0EAFFEECFDB
:10092C0000F0EECF01F0009002C0E1FF03C0E2FF47
:10093C0000C0E6FF01C0E6FF24AF11D004C0E1FF08
:10094C0005C0E2FFE66A040E0418006E00C004F055
:10095C0004C0E1FF05C0E2FF400EE66E11D004C0FA
:10096C00E1FF05C0E2FF880EE66E040E0418006E6F
:10097C0000C004F004C0E1FF05C0E2FFC80EE66E43
:02098C00120057
:10098E000401286B296B42D0538E28813750010AFF
:10099E00D8B4288350D0538E4ED0538E24BF16D049
:1009AE0024C403F00F0E031603C000F0000E016EF8
:1009BE00003600900136440E0024E96E000E012030
:1009CE00EA6EEECF04F0EECF05F015D024C403F09E
:1009DE000F0E031603C000F0000E016E00360090DD
:1009EE0001364A0E0024E96E000E0120EA6EEECFAB
:1009FE0004F0EECF05F004C0E9FF05C0EAFFEECF2C
:100A0E0001F001A402D0010E286F15D020C401F010
:100A1E001F0E01160150000AB7E020C401F01F0E90
:100A2E0001160150010AB7E020C401F01F0E011695
:100A3E000150020AB2E053AE07D0280E506E040EDB
:0A0A4E00516E5380020E546E120028
:100A5800566A4AC0E1FF4BC0E2FFE66A040E4A1834
:100A6800E16E4BC0E2FF000EE21AE66A5BAE14D0FC
:100A7800000E006E0001611908E10050601905E1DF
:100A880000505F1802E15E50000A05E05EC000F009
:0A0A98005FC001F089DD5B9E1200D3
:100AA200010E2A24E96E000E2B20EA6EEECF00F032
:100AB20000C075F0000E5D5C03E1000175515C5CE5
:100AC20003E25CC075F00BD0000175515C5C006EF6
:100AD200000E5D58016E00C05CF001C05DF00001C7
:100AE200766B7551765D1CE2280EE96E040EEA6E95
:100AF2007651E926D8B0EA2AEECF00F059C0E1FFDC
:100B02005AC0E2FF00C0E6FF010E5924006E000E3B
:100B12005A20016E00C059F001C05AF0762BE1D77D
:100B2200000E006E5D50005C02E15C50000828E29D
:100B3200010E4824E16E000E4920E26E080EE66EB8
:100B4200020E4824E16E000E4920E26E280EE66E87
:100B5200040EE66E2AC0E9FF2BC0EAFFEECF00F0DA
:100B620000BC07D048C0E1FF49C0E2FFC80EE66EF4
:100B720006D048C0E1FF49C0E2FF880EE66E2BD0E6
:100B8200010E4824E16E000E4920E26E080EE66E68
:100B9200020E4824E16E000E4920E26E200EE66E3F
:100BA200040EE66E48C0E1FF49C0E2FF840EE66E25
:100BB200000E006E611908E10050601905E1005055
:100BC2005F1802E15E50000A05E05EC000F05FC0FF
:080BD20001F0EDDC5B9E120056
:100BDA0020C401F0600E0116050E006E005004E0FC
:100BEA000132019EFF0FFBD70150000A01E063D0DA
:100BFA003FD0538E080E0001626F5DD0E0DC5BD0FF
:100C0A0055DD59D0630E506E000E516E5380010EA1
:100C1A00546E538E50D0B6DE4ED013DE4CD04F0EEB
:100C2A00006E000E016E24510026D8B0012A00C0C1
:100C3A0050F001C051F05380010E546E538E3BD0D8
:100C4A00538E4F0EE16E000EE26E2451E126D8B0AB
:100C5A00E22A22C4E6FF2FD0020E0001776F000EAF
:100C6A00786F796B7A6B7B6B7C6B33DC24D023D007
:100C7A0004012151050ABDE02151060ABFE02151B4
:100C8A00090ABEE02151080ABDE02151000AC3E069
:100C9A002151010AC2E02151030ABFE021510A0A87
:100CAA00BEE021510B0ACCE02151070AD5E02151BF
:080CBA000C0ADDE0DCD712009A
:100CC2006D9853BE49D05BAE28D0020E566E010E0F
:100CD2004A24E16E000E4B20E26EE66A4AC0E1FF52
:100CE2004BC0E2FFC80EE66E010E4824E16E000E14
:100CF2004920E26E080EE66E020E4824E16E000EF6
:100D02004920E26E280EE66E040EE66E48C0E1FF50
:100D120049C0E2FFC80EE66E1ED0010E4824E16E05
:100D2200000E4920E26E080EE66E020E4824E16EC5
:100D3200000E4920E26E200EE66E040EE66E48C0FA
:100D4200E1FF49C0E2FF8C0EE66E4AC0E1FF4BC0F4
:100D5200E2FF840EE66E7DD05BBE7BD0040120AF45
:100D620051D05550275D02E15450265D04E226C45D
:100D720054F027C455F0CCDC010E566E010E482407
:100D8200E16E000E4920E26E080EE66E020E482465
:100D9200E16E000E4920E26E200EE66E040EE66E53
:100DA20048C0E1FF49C0E2FF800EE66E4E6A010EC6
:100DB2002A24E16E000E2B20E26E080EE66E020E71
:100DC2002A24E16E000E2B20E26E200EE66E040E47
:100DD200E66E2AC0E1FF2BC0E2FF840EE66E010E32
:100DE2004E6E020E4A24E16E000E4B20E26E280E79
:100DF200E66E040EE66E4AC0E1FF4BC0E2FFC80E8B
:100E0200E66E27D0020E566E010E4A24E16E000EE7
:100E12004B20E26EE66A4AC0E1FF4BC0E2FFC80E19
:100E2200E66E010E4824E16E000E4920E26E080EC5
:100E3200E66E020E4824E16E000E4920E26E280E94
:100E4200E66E040EE66E48C0E1FF49C0E2FFC80E3E
:040E5200E66E120036
:100E56005650020A02E122DE1ED0FBDD4E50000A89
:100E660019E1010E4824E16E000E4920E26E080EDB
:100E7600E66E020E4824E16E000E4920E26E200E58
:100E8600E66E040EE66E48C0E1FF49C0E2FF8C0E36
:080E9600E66E01D04E6A120065
:100E9E004AC0E9FF4BC0EAFFEECF00F0000E00BCE7
:100EAE00010E0001746F040E4A18006E00C04AF065
:100EBE006251080A0AE122C46EFF6E50000803E276
:100ECE00100E626F02D0040E626F5650010A2BE1B3
:100EDE00020E4A24E16E000E4B20E26E280E006ECA
:100EEE00040E016E00C0E6FF01C0E6FF0BDC3650BB
:100EFE00020A07E14AC0E1FF4BC0E2FF840EE66E34
:100F0E0011D000017451000A07E14AC0E1FF4BC045
:100F1E00E2FFC80EE66E06D04AC0E1FF4BC0E2FF0C
:0A0F2E00880EE66E01D091DD12007E
:100F380000016E51000A12E06DC000F0000E016E53
:100F48000036009001364A0E0024E96E000E01209A
:100F5800EA6EEECF04F0EECF05F011D06DC000F0D0
:100F6800000E016E003600900136440E0024E96E32
:100F7800000E0120EA6EEECF04F0EECF05F0020E6F
:100F88000424E16E000E0520E26E6FC0E6FF70C01B
:100F9800E6FF010E0424E16E000E0520E26E71C02A
:100FA800E6FF04C0E9FF05C0EAFFEECF00F004C089
:100FB800E1FF05C0E2FF400E0014E66E04C0E9FF41
:100FC80005C0EAFFEECF00F004C0E1FF05C0E2FF74
:100FD800880E0010E66E6E51000A1BE06DC000F02E
:100FE800000E016E0036009001364A0E0024026E93
:100FF800000E0120036E02C0E9FF03C0EAFF040EE1
:10100800EE18006E02C0E1FF03C0E2FF00C0E6FF79
:101018001AD06DC000F0000E016E00360090013647
:10102800440E0024026E000E0120036E02C0E9FF88
:1010380003C0EAFF040EEE18006E02C0E1FF03C011
:10104800E2FF00C0E6FF04C000F005C001F0120096
:0E105800160E6F6E9F0E6B6E7B0E696E120091
:10106600080E386E170E396E000E3A6EA60E3B6EDF
:10107600170E3C6E000E3D6E310E3E6E170E3F6E25
:10108600000E406E740E416E170E426E000E436ED9
:02109600120046
:101098006DC002F06EC003F070C000F071C001F0C6
:1010A800010E0001705F000E715B0050011009E035
:1010B80002C0E1FF03C0E2FF6FC0E6FF024A032A55
:0410C800EBD7120050
:1010CC00000E00016E1902E1000E6D1902E1016AB9
:1010DC0009D06DC0E9FF6EC0EAFFEECF00F0016AE7
:0A10EC0000BE012A01C000F012004E
:0A10F600D08EA28AA08AF28E1200AA
:101100004AC0E9FF4BC0EAFFEECF00F000AE05D0C9
:101110004AC0E1FF4BC0E2FFE66A366A566A546A8B
:10112000556A536A5ADD030E0001776F000E786F1F
:10113000796B7A6B7B6B7C6B6EEC02F0C2DD12001C
:1011400092DF576A586A346A356A6A6A686A84DF65
:101150006D8C6E6A710E00016D6F0F0E6E6F6F6B8E
:10116000010E706F000E716F97DF6D9C686B080E3B
:10117000685D16E268C000F0000E016E0036009057
:101180000136003600900136000E0024E16E040E98
:101190000120E26EE66AE66AE66AE66A682BE7D74D
:1011A000160E706E68A603D0F70E6816FBD7536A4A
:1011B0005B6A5C6A5D6A6D98080E4A6E040E4B6E3F
:0611C000636B626B12007C
:1011C600FD0E2614016E026AFF0E0216000E0218AC
:1011D60002E1000E01186CE17E0E2614016E01C0BC
:1011E60003F00332039E03C000F0000E016E0036CA
:1011F60000900136003600900136000E0024026E83
:10120600040E0120036E02C02AF003C02BF002C0B8
:1012160048F003C049F0040E4818006E00C048F0BC
:1012260002C0E9FF03C0EAFFEECF00F000C001F004
:101236003C0E01160132019E0132019E01500D0A3B
:1012460035E1020E2A24E96E000E2B20EA6EEECF5F
:1012560001F0EECF02F00250040A02E1280E011856
:1012660023E1020E2A24E16E000E2B20E26E200EF0
:10127600E66E040EE66E0001736B080E735D14E2F3
:10128600200EE16E040EE26E7351E126D8B0E22A1A
:10129600280EE96E040EEA6E7351E926D8B0EA2AE2
:1012A600EECFE6FF732BE9D728DF01D0D1DD0DD0D5
:1012B600FD0E2614016E026AFF0E0216000E0218BB
:0C12C60002E1040E011801E1E7DD120056
:1012D200200E0001625D03E36DB201D002D0006A0C
:1012E20033D034C06DF035C06EF0EFDE00522BE12A
:1012F2006BC06DF0010E6E6F68C06FF069C070F068
:101302006AC071F018DE00C034F001C035F0306AF6
:10131200316A326A336A34C06DF035C06EF0D5DEA0
:10132200005208E0305031103210331002E0006AEF
:101332000BD0F1D7010E3424E96E000E3520EA6E8F
:0A134200EECF00F001D0006A1200A7
:10134C0000016251000A0AE16D6A696A7FDECDDE36
:0E135C006DB602D06D86FCD7010E626F1200D6
:10136A00200E0001625D03E36DB201D002D0006A73
:10137A0023D057C06DF058C06EF0A3DE00521BE1B7
:10138A00010E5724E96E000E5820EA6EEECF00F0E7
:10139A0000C06CF06BC06DF06E6B68C06FF069C016
:1013AA0070F06AC071F0C3DD00C057F001C058F098
:0A13BA006CC000F001D0006A1200C0
:1013C400740E0001776F000E786F796B7A6B7B6B0C
:1013D4007C6B6EEC02F06D92699468A403D0FB0EF2
:0613E4006816FBD71200A1
:0413EA00A19A1200B2
:1013EE003BDE576A586A346A356A6A6A686A2DDE65
:1013FE006D8C6E6A710E0001776F0F0E786F796BC0
:10140E00010E7A6F000E7B6F54EC02F06D9C736BC5
:10141E00080E735D16E273C000F0000E016E00360A
:10142E0000900136003600900136000E0024E16E69
:10143E00040E0120E26EE66AE66AE66AE66A732B3D
:10144E00E7D7160E706E68A603D0F70E6816FBD798
:10145E00536A5B6A5C6A5D6A6D98080E4A6E040E8A
:08146E004B6E636B626B120010
:1014760070A019D02AC0E9FF2BC0EAFFEECF01F019
:101486000150800A0FE14AC0E9FF4BC0EAFFEECFE8
:1014960001F00150840A06E12AC0E1FF2BC0E2FFF9
:0C14A6008C0EE66E7090DF0E68161200CF
:1014B2006984EF0E68166D82750E0001776F000E5B
:1014C200786F796B7A6B7B6B7C6B6EEC02F012003F
:1014D2000900F5CFE6FF0006FBE10106F9E1120083
:1014E200010E296E64C024F065C025F066C02EF09E
:1014F20067C02FF024DE010E016E0150010A01E1E6
:0415020024DF1200D0
:1015060064C068F065C069F066C06AF0010E00014B
:061516006B6FDCDE120029
:10151C0000016251010A07E16DBA05D0686A698061
:10152C006988020E626F68A405D069A403D0FB0E13
:10153C00681642DF6DA202D052DF78D068A018D0B6
:10154C0069A016D04EDF040E626F200E0401026FEC
:10155C00040E036F080E016F000E0015006E00C024
:10156C0000F48C0E0011006E00C000F4FE0E681624
:10157C0068A805D069A803D096DFEF0E681668AC92
:10158C0011D069AC0FD0730E0001776F000E786F1D
:10159C00796B7A6B010E7B6F000E7C6F6EEC02F038
:1015AC00BF0E681668AA03D069AA01D05EDF68A2D4
:1015BC0010D069A20ED0FF0E0001776F3F0E786F2E
:1015CC00796B7A6B010E7B6F000E7C6F6EEC02F008
:1015DC006A6A040E0001625D02E201DF27D069A68F
:1015EC0024D0726B040E725D20E268A61AD06CCF08
:1015FC0026F0F70E6816780E2614016E0150000ABC
:10160C0002E1DBDD0DD0720E0001776F000E786FFA
:10161C00260E796F000E7A6F7B6B7C6B6EEC02F092
:0E162C0001D003D00001722BDDD7D9DE1200F1
:10163A0024C068F025C069F0400E00016A6F010EEF
:06164A006B6F8EDE120042
:101650000F0EC112070EB412956A936AFF0E836EC5
:10166000070E0B6E170E0C6E6A0E0D6E0D2EFED74A
:101670000C2EFCD70B2EFAD70000836A070E0B6ED8
:10168000170E0C6E6A0E0D6E0D2EFED70C2EFCD7AB
:101690000B2EFAD70000000E0001646F050E656F77
:1016A000400E666F050E676F1CDFFF0E836E070E20
:1016B0000B6E170E0C6E6A0E0D6E0D2EFED70C2ED5
:1016C000FCD70B2EFAD70000836A070E0B6E170E9D
:1016D0000C6E6A0E0D6E0D2EFED70C2EFCD70B2E47
:1016E000FAD7000000C581FFA8DF005201E1FCD756
:1016F000400E646F050E656F400E666F04DF00528A
:0817000001E1F6D7D2D7FFD7B3
:1017080009022900010100803209040000020300D7
:101718000000092101010001222100070581034081
:0917280000010705010340000166
:1017310022034D0069006B0072006F0065006C00B0
:1017410065006B00740072006F006E0069006B0031
:02175100610035
:101753000600FF0901A10119012940150026FF0018
:101763007508954081021901294075089540910239
:01177300C0B5
:101774002003550053004200200048004900440063
:1017840020004C0069006200720061007200790060
:1017940012010002000000083412010001000102DD
:0217A400000142
:0417A600040309042B
:020000040030CA
:0E000000240E3F1EFF8381FF0FC00FE00F4054
:00000001FF
