:020000040000FA
:060000006DEF03F0120099
:0600080004EF08F01200F5
:02000E000000F0
:050010000000010000EA
:060018000CEF08F01200DD
:02001E000100DF
:0C0020000E000000EC00000007000000D3
:04002C00DACFE4FF44
:10003000E2CFDAFFE9CFE4FFEACFE4FFF6CFE4FF57
:10004000F7CFE4FFF5CFE4FFF3CFE4FFF4CFE4FF15
:10005000FACFE4FF00EE00F00B0EE80403E3EECF6E
:10006000E4FFFBD700EE0BF0030EE80403E3EECF52
:10007000E4FFFBD7E6529FEC08F0E55200EE0DF0EE
:10008000030EE80403E3E5CFEDFFFBD700EE0AF033
:100090000B0EE80403E3E5CFEDFFFBD7E5CFFAFF56
:1000A000E5CFF4FFE5CFF3FFE5CFF5FFE5CFF7FFB1
:1000B000E5CFF6FFE5CFEAFFE5CFE9FFE5CFDAFFD1
:1000C0001100D8CFE4FFE0CFE4FFE46EDACFE4FF25
:1000D000E652E552E5CFDAFFE550E5CFE0FFE5CFA8
:1000E000D8FF100004D8D7EC0AF03DD8FED7D9CFFE
:1000F000E6FFE1CFD9FF020EE1260F0EC112580E26
:10010000DE6E020EDD6E9B8CDFCF0BF0DF06010E84
:10011000DBCF0CF001E2DB060B500C10F5E10F0118
:100120007F0E486FBF0E496F0CD80FEC08F0020E1F
:10013000E15C02E2E16AE552E16EE552E7CFD9FF08
:100140001200938094908B90928A0F014889110E2F
:10015000C26E9E0EC16E0001EC6BED6BEE6BEF6B31
:10016000010EF06F1200D9CFE6FFE1CFD9FF020EEA
:10017000E1260001F05101E0B4D8200E0E01E76E37
:100180000019E8AE02D0E73402D0E750005D01E28A
:100190007CD06550020B01E078D00001EC51ED11EC
:1001A00002E1000E08D0ECC0E9FFEDC0EAFFEF501D
:1001B000800B01E0010E000968E100016051370A7F
:1001C00021E0B60A05E0010A4DE10001F06B4AD0DA
:1001D0000001EE51EF1102E1000E08D0EEC0E9FF80
:1001E000EFC0EAFFEF50800B01E0010E00093AE199
:1001F0000001810EA06F81A003D0010EA16F1FD05E
:10020000A16B1DD00001EE51EF1102E1000E08D0EC
:10021000EEC0E9FFEFC0EAFFEF50800B01E0010EF6
:10022000000920E13CD8F3CFDEFFF4CFDDFF000171
:10023000370EA06FDFCFA1F0010EDBCFA2F0400E92
:10024000E66EA00EE66E000EE66E010EE66EE66E3F
:1002500092EC09F00B6E050EE15E0B50F3CFEEF061
:10026000F4CFEFF0400EE66E600EE66E000EE66E26
:10027000E66A010EE66E92EC09F00B6E050EE15E89
:100280000B50F3CFECF0F4CFEDF0020EE15C02E2A4
:10029000E16AE552E16EE552E7CFD9FF1200D9CF0E
:1002A000E6FFE1CFD9FF020EE126DE6ADD6AC282F7
:1002B000C2B2FED7C350DF6E010EC4CFDBFFDECF6C
:1002C0000BF0DDCF0CF00BC0F3FF0CC0F4FF020EFF
:1002D000E15C02E2E16AE552E16EE552E7CFD9FF67
:1002E00012000001F151F21104E1100EF16F270E1E
:1002F000F26FF107000EF25B65A204D0F151F2112A
:100300001DE112000E01005101E11200000501E1A2
:100310001200020E005D01E11200040E005D01E119
:100320001200100E005D04E10001F151F211120003
:10033000200E005D03E10001F151F21112001200E4
:1003400012001200120093EF02F012001E0EE66E71
:10035000010EE66E5BEC09F0E552E552400EE66EEA
:10036000600EE66E000EE66EE66A010EE66E92EC38
:1003700009F00B6E050EE15E0B50F3CFECF0F4CFFD
:10038000EDF012000E011F0520E10E0120051DE118
:10039000A098D6DF65920E01206B0001100EE06F71
:1003A0000E0EE16FE007000EE15BE051E111FAE1B2
:1003B0006584080EE06F070EE16FE007000EE15B59
:1003C000E051E111FAE16594A0881200D9CFE6FF6F
:1003D000E1CFD9FFFD0EDBCF06F0FE0EDBCF07F03D
:1003E000050E061801E1075036E0E868061802E13C
:1003F0007F0E07182FE0030E061801E1075028E0D2
:10040000020E061801E1075021E0010E061801E175
:1004100007501AE0740E061801E1075013E0750E3C
:10042000061801E107500CE0730E061801E10750B1
:1004300005E0720E06180FE107500DD082DF0BD0D9
:100440007EDF09D07DDF07D081DF05D07EDF03D0DE
:100450007ADF01D077DF010EE552E7CFD9FF120036
:100460001201000200000008D8043F00020001024F
:10047000000109022900010100C032090400000244
:1004800003000000092111010001221C0007058161
:10049000034000010705010340000104030904347F
:1004A000034D006900630072006F0063006800691B
:1004B000007000200054006500630068006E006F4B
:1004C000006C006F0067007900200049006E006337
:1004D000002E002E03530069006D0070006C006553
:1004E00000200048004900440020004400650076D8
:1004F000006900630065002000440065006D006F26
:10050000000600FF0901A10119012940150125403C
:10051000750895408100190129409100C072049B23
:05052000049F04D30458
:0A052600040120511F0B010801E041
:100530001200245101E01200060E215D1BE123513F
:10054000230A18E0010A0CE0030A14E10E01010578
:1005500011E10E01840E116F040E126F090E06D008
:100560000E01010E116F050E126F1C0E146F156B2C
:10057000C00E136F04012051600BE842E842E842CC
:10058000E842E842010801E0120021510B0A26E08E
:10059000080A19E0090A11E0080A05E00B0A23E03D
:1005A000080A21E012000E01F30E116F000E126F07
:1005B000010E146F156BC10E0FD00E01800E136F5C
:1005C00023C4F3F012000E01F40E116F000E126F2F
:1005D000010E146F156B810E136F12000E01800E49
:0805E000136F22C4F4F01200B5
:0805E8001E0EF66E000EF76E08
:1005F000000EF86E00010900F550E76F0900F55094
:10060000E86F03E1E76701D03DD00900F550E26FE4
:100610000900F550E36F0900F550E46F0900090087
:10062000F550E96E0900F550EA6E0900090009006D
:10063000F550E56F0900F550E66F09000900F6CFA7
:10064000E9F0F7CFEAF0F8CFEBF0E2C0F6FFE3C055
:10065000F7FFE4C0F8FF0001E55302E1E65307E0CD
:100660000900F550EE6EE507F8E2E607F9D7E9C0B4
:10067000F6FFEAC0F7FFEBC0F8FF0001E707000E46
:06068000E85BBFD7120089
:0A068600FE0EE3CFE9FFFF0EE3CF05
:10069000EAFFE9CFF3FFEACFF4FFFB0EE35003E1FB
:1006A000FC0EE35009E0FB0EE30602E2FC0EE3065B
:0A06B000FD0EE350EE6EF1D71200CC
:0606BA00C00EF36E00EE1D
:1006C00000F00E0E01D81200EA6002D0EE6AFCD7EC
:0A06D000F350E9601200EE6AFCD757
:0606DA001DEE00F02DEE04
:1006E00000F0F86A0A9CF4EC02F003EC08F072ECFB
:0606F00000F0FBD7120030
:061000006DEF03F0120089
:021006001200D6
:0610080016EF00F01200DB
:0610180061EF00F0120080
:02101E00D9CF28
:10102000E6FFE1CFD9FFE652A098636A626A0F013A
:10103000266B010EE66EE66AE66A270EE66E0F0E76
:10104000E66E43EC03F00B6E050EE15E0B500F01F4
:10105000160E396F9F0E376F7B0E366FDF6ADF50CB
:101060000B6E0C6A080E0B5C000E0C5810E2DF5081
:10107000040DF3CFE9FFF4CFEAFF000EE926040EDA
:10108000EA22EE6AEE6AEE6AEE6ADF2AE8D7658C3B
:101090000F01386B6598659C62A607D062960E01B9
:1010A000136B186B196B1A6BF7D70E01010E2A6FB1
:1010B0002B6F2C6B2D6B206BDF6A020EDF5C26E240
:1010C000EA6ADF34FE0BEA36E96E0B0EE9260E0EF5
:1010D000EA22EE6AED6AEA6ADF34FE0BEA36E96E6E
:1010E000070EE9260E0EEA22EE6AED6ADF50EA6A82
:1010F000240FE96E0E0EEA22EF6ADF50EA6A260F2D
:10110000E96E0E0EEA22EF6ADF2AD7D70E01080E2B
:101110000B6F040E0C6F0F01160E266F0401200ECC
:10112000026F040E036F080E016F840E006F0E0134
:10113000016B006BE552E552E7CFD9FF1200D9CF22
:10114000E6FFE1CFD9FFE6520E01000509E165BADD
:1011500007D0626A0F01368136890E01020E006FD8
:101160006250040B07E00F013651040B03E0629458
:1011700092EC0EF065B25ED06250010B0AE00F01F6
:101180003651010B06E04BDFA0880E01040E006F04
:1011900062906250100B07E00F013651100B03E014
:1011A0007CEC0EF0629862AC1AD00F0136AD0FD015
:1011B000010EE66EE66A000EE66EE66A730EE66EF5
:1011C000E66AE6EC01F00B6E060EE15E0B50629CE7
:1011D0000E01285101E02807285101E100DA625090
:1011E000200B06E00F013651200B02E062EC0EF0FE
:1011F0006250020B14E00F013651020B10E0010E99
:10120000E66EE66A000EE66EE66AE6687F0EE66E59
:10121000E6EC01F00B6E060EE15E0B50636A040E05
:101220000E01E76E0019E8AE02D0E73402D0E750B5
:10123000005D02E2A1983AD00F0136A736D0DF6AEE
:10124000040EDF5C32E262A630D064CF21FE0E01D4
:101250002151780BE842E842E842226F629621B5BC
:1012600006D02251EA6A260FE96E0E0E05D02251F1
:10127000EA6A240FE96E0E0EEA22EF70225103E1B2
:10128000AAEC0EF010D0000EE66EE66A210EE66EB5
:101290000E0EE66E720EE66EE66AE6EC01F00B6E7E
:1012A000060EE15E0B50DF2ACBD7A198E552E5523E
:1012B000E7CFD9FF1200D9CFE6FFE1CFD9FF020E69
:1012C000E126FD0EDBA407D0E66AFE0EDBCFE6FFCB
:1012D00015DAE552E552FD0EDBA208D0010EE66EEE
:1012E000FE0EDBCFE6FF0ADAE552E552FE0EDB50DA
:1012F0000C6A260F0B6E0F0E0C220BC0DEFF0CC00B
:10130000DDFFDECFE9FFDDCFEAFFFD0EDBCFEFFF34
:10131000020EE15C02E2E16AE552E16EE552E7CFDE
:10132000D9FF1200D9CFE6FFE1CFD9FF020EE126A7
:10133000FD0EDB500AE0FE0EEA6ADB34FE0BEA36F5
:10134000E96E0B0EE9260E0E09D0FE0EEA6ADB34BA
:10135000FE0BEA36E96E070EE9260E0EEA22EECF04
:10136000DEFFEDCFDDFFD9CFE9FFDACFEAFFEE50A8
:10137000ED1003E1F36AF46A44D0DECFE9FFDDCF7C
:10138000EAFF020EE926000EEA22FB0EDBCFEEFF9B
:10139000FC0EDBCFEDFFDECFE9FFDDCFEAFFEE5243
:1013A000FA0EDBCFEFFF400EDECFE9FFDDCFEAFF25
:1013B000E850EF16880EDECFE9FFDDCFEAFFE850F8
:1013C000EF12FD0EDB500AE0FE0EEA6ADB34FE0B84
:1013D000EA36E96E0B0EE9260E0E09D0FE0EEA6A19
:1013E000DB34FE0BEA36E96E070EE9260E0EEA2222
:1013F000EF74DECF0BF0DDCF0CF00BC0F3FF0CC0B1
:10140000F4FF020EE15C02E2E16AE552E16EE552B0
:10141000E7CFD9FF1200D9CFE6FFE1CFD9FF020E07
:10142000E126FE0EDB5020E105CEE9FF06CEEAFF05
:10143000EE52080EEF6E05CEE9FF06CEEAFF020E71
:10144000E926000EEA22200EEE6E040EED6E05CEA9
:10145000E9FF06CEEAFF8C0EEF6E0BCEE9FF0CCE55
:10146000EAFF840EEF6E3BD0FD0EDB50E8240D6EDC
:10147000FE0EDB50040DF3500D24040DF3CF0BF0E2
:10148000F4CF0CF0000E0B26040E0C220BC0DEFF76
:101490000CC0DDFF840EDECFE9FFDDCFEAFFE850B0
:1014A000EF12FD0EDB50E8240D6EFE0EDB50040D36
:1014B000F3500D24010F040DF3CF0BF0F4CF0CF01B
:1014C000000E0B26040E0C220BC0DEFF0CC0DDFF4D
:1014D000840EDECFE9FFDDCFEAFFE850EF12020E07
:1014E000E15C02E2E16AE552E16EE552E7CFD9FF45
:1014F0001200D9CFE6FFE1CFD9FF65A84ED0FE0E8E
:10150000EA6ADB34FE0BEA36E96E0B0EE9260E0EB4
:10151000EA22EE50EFCFEAFFE96E400EEE16EE6AD9
:10152000EE6AEE6AFE0EEA6ADB34FE0BEA36E96E1C
:101530000B0EE9260E0EEA22EE50EFCFEAFFE96E1F
:10154000EE7CFE0EEA6ADB34FE0BEA36E96E0B0E29
:10155000E9260E0EEA22EF74400E0B6EFE0EEA6ACA
:10156000DB34FE0BEA36E96E0B0EE9260E0EEA229C
:10157000EE50EFCFEAFFE96E0B50EF16FE0EEA6A6F
:10158000DB34FE0BEA36E96E0B0EE9260E0EEA227C
:10159000EE50EFCFEAFFE96EEF7CE552E7CFD9FFDF
:1015A0001200656A0F01366B0E01006B12000E010E
:1015B000005114E1656A0F01366B160E396F9F0EEC
:1015C000376F7B0E366FD08EA288A088F28E65B6FC
:1015D00002D06586FCD70E01010E006F12000E01CD
:1015E0002A514DE1010E2A6F2B5149E1010E2B6F5B
:1015F000020E105D0DE10BCEE9FF0CCEEAFFEE52BC
:10160000EF6A0BCEE9FF0CCEEAFFC80EEF6E1200B8
:10161000100535E1236B03CEE9FF04CEEAFFEE525D
:10162000080EEF6E03CEE9FF04CEEAFF020EE926B4
:10163000000EEA22200EEE6E040EED6E03CEE9FFE0
:1016400004CEEAFF840EEF6E010E236F05CEE9FF94
:1016500006CEEAFFEE52080EEF6E05CEE9FF06CE8B
:10166000EAFF020EE926000EEA22200EEE6E040EBC
:10167000ED6E05CEE9FF06CEEAFF800EEF6E12009A
:101680000E012C6B2D6B020E105D18E105CEE9FFEB
:1016900006CEEAFFEE52080EEF6E05CEE9FF06CE4B
:1016A000EAFF020EE926000EEA22280EEE6E040E74
:1016B000ED6E05CEE9FF06CEEAFF1DD01451040100
:1016C000265D0E0115510401275904E226C414FEBB
:1016D00027C415FECAD80BCEE9FF0CCEEAFF020ED6
:1016E000E926000EEA22280EEE6E040EED6E0BCEF9
:1016F000E9FF0CCEEAFFC80EEF6E1200D9CFE6FF6D
:10170000E1CFD9FF020EE126000EDE6E040EDD6E83
:10171000FD0EDB50E8240D6EFE0EDB50040DF35081
:101720000D24040DF4CF0CF0D9CFE9FFDACFEAFF96
:10173000F350EE260C50ED22DECFE9FFDDCFEAFFBD
:10174000EF9EFD0EDB500AE1FE0EEA6ADB34FE0B73
:10175000EA36E96E070EE9260E0E09D0FE0EEA6A99
:10176000DB34FE0BEA36E96E0B0EE9260E0EEA229A
:10177000DECFEEFFDDCFEDFFDECFE9FFDDCFEAFF0D
:10178000EF9CDECFE9FFDDCFEAFF040EE926000E75
:10179000EA22EF8C020EE15C02E2E16AE552E16EC0
:1017A000E552E7CFD9FF120065980E0113BF2BD089
:1017B00018AF09D0020E106F2D5101E161DF0E014B
:1017C0002B6B2A6B120005CEE9FF06CEEAFFEE5224
:1017D000080EEF6E05CEE9FF06CEEAFF020EE926FF
:1017E000000EEA22200EEE6E040EED6E05CEE9FF2D
:1017F00006CEEAFF8C0EEF6E0BCEE9FF0CCEEAFFB1
:10180000840EEF6E1200040120AF0DD00E01010E08
:10181000106F2C5101E134DF0E012B6B2A6B295123
:1018200023E1EFEF0AF00E01020E106F05CEE9FF83
:1018300006CEEAFFEE52080EEF6E05CEE9FF06CEA9
:10184000EAFF020EE926000EEA22200EEE6E040EDA
:10185000ED6E05CEE9FF06CEEAFF840EEF6E2B6B30
:101860002A6B295101E1BBDE1200D9CFE6FFE1CF9F
:10187000D9FFE652080EDF6E0E01145D000E1559F9
:101880000AE214CEDFFF0F5102E1010E03D00F0573
:1018900002E1020E0F6FDF500C6AE850145D146F06
:1018A0000C501559156F0BCEE9FF0CCEEAFFEE5226
:1018B000DFCFEFFF280E1D6F040E1E6F13B118D07F
:1018C000DF502DE011CEF6FF12CEF7FF112B000EE8
:1018D00012230800F550E66E1DCEE9FF1ECEEAFF8A
:1018E0001D2B000E1E23E552E750EF6EDF06E8D7F2
:1018F000DF5015E011CEE9FF12CEEAFF112B000EEA
:101900001223EF50E66E1DCEE9FF1ECEEAFF1D2B1F
:10191000000E1E23E552E750EF6EDF06E9D7E552D1
:10192000E552E7CFD9FF1200D9CFE6FFE1CFD9FFCB
:10193000020EE12603CEE9FF04CEEAFFEE52EFCF1E
:10194000DFFFDFCF0BF00B500E01195D000E1A59AF
:1019500002E219CEDFFFDF500B6E0C6AE850195D12
:10196000196F0C501A591A6F010EDB6ADF50F36EB3
:10197000010EDBCFF4FFF350F45C16E2010EDB50F6
:10198000EA6A280FE96E040EEA22EF50E66E16CEE0
:10199000E9FF17CEEAFF162B000E1723E552E7509A
:1019A000EF6E010EDB2AE2D7000ED8801955000E2B
:1019B0001A5527E205CEE9FF06CEEAFFEE52080EE1
:1019C000EF6E05CEE9FF06CEEAFF020EE926000E15
:1019D000EA22280EEE6E040EED6E03CEE9FF04CE71
:1019E000EAFFEF50400B06E105CEE9FF06CEEAFF25
:1019F000C80E05D005CEE9FF06CEEAFF880EEF6ED1
:101A000028D005CEE9FF06CEEAFFEE52080EEF6EB3
:101A100005CEE9FF06CEEAFF020EE926000EEA2215
:101A2000200EEE6E040EED6E05CEE9FF06CEEAFF47
:101A3000840EEF6E1B511C1107E005D01CCEFAFF7F
:101A40000E011B51F96EFADF0E01189F295101E1B9
:101A5000C6DD020EE15C02E2E16AE552E16EE552AA
:101A6000E7CFD9FF1200D9CFE6FFE1CFD9FFE65289
:101A70000E01138F010EE66EE66AE66A270EE66E29
:101A80000F0EE66E43EC03F00B6E050EE15E0B509D
:101A9000200EE66EE66AE66A000EE66E040EE66E5C
:101AA00043EC03F00B6E050EE15E0B50658CDF6AB4
:101AB000020EDF5C10E2DF50EA6A240FE96E0E0EC0
:101AC000EA22EF6ADF50EA6A260FE96E0E0EEA227A
:101AD000EF6ADF2AEDD7010EE66EE66AE66A020ECD
:101AE000E66E0E0EE66E43EC03F00B6E050EE15E45
:101AF0000B50659C0E01080E0B6F040E0C6F000E50
:101B0000036F040E046F03CE05FE066F22C401FEB0
:101B1000015102E1100E12D0010EE66EE66A010ECE
:101B2000E66E0E0EE66E010EE66EE66AE6EC01F07B
:101B30000B6E060EE15E0B500E01200E006FE5529B
:101B4000E552E7CFD9FF1200800E0401205D58E175
:101B50000E01C00E136F04012351030A2FE0010A86
:101B600009E0030A4BE10E01600E116F040E126FC3
:101B7000120E3ED02251F66EF76AD890F636F7363E
:101B80001D0EF626050EF7220900F5CF11FE0A00FC
:101B9000F5CF12FE020E0E01F76A1125F66E1251F4
:101BA000F7220800F5CF14FE030EF76A1125F66E32
:101BB0001251F7220800F5CF15FE1200030E225D28
:101BC0001AE22251F66EF76AD890F636F7361F0EF3
:101BD000F626050EF7220900F5CF11FE0A00F5CF13
:101BE00012FE11CEF6FF12CEF7FF0800F5500E01DF
:101BF000146F156B12000E01136B12000E01136BA4
:101C00001200D9CFE6FFE1CFD9FF020EE126040191
:101C1000286B296B20511F0B020A11E0030A0CE00C
:101C2000010A3CE10E01138F040128810E011F05FA
:101C300035E10401288332D00E01138F2FD00E011D
:101C4000138F040124BF0BD024510F0BE96EEA6AF5
:101C5000D890E936EA36070EE9260E0E0AD024514E
:101C60000F0BE96EEA6AD890E936EA360B0EE926E0
:101C70000E0EEA22EECFDEFFEDCFDDFFDECFE9FF75
:101C8000DDCFEAFFEF50800B09E0DECFE9FFDDCFCB
:101C9000EAFFEF50040B02E0010E286F0E0113AFB4
:101CA00007D0280E116F040E126F1381020E146FED
:101CB000020EE15C02E2E16AE552E16EE552E7CF35
:101CC000D9FF12000F0126A115D003CEE9FF04CEE3
:101CD000EAFFEF5080080DE10BCEE9FF0CCEEAFFE2
:101CE000EF50840806E103CEE9FF04CEEAFF8C0E34
:101CF000EF6E2691629A12000F0136856298658216
:101D00000E01010E206F000EE66EE66AE66EE66AD0
:101D1000750EE66EE66AE6EC01F00B6E060EE15E0D
:101D20000B5012000E01206B000EE66EE66AE66EA6
:101D3000E66A740EE66EE66AE6EC01F00B6E060EDD
:101D4000E15E0B5065920F01369562A402D0629459
:101D5000FCD71200D9CFE6FFE1CFD9FFE6520E0142
:101D60002D0E286FFD0E211553E17E0E2115E84042
:101D70007F0B040DF3CF03FEF4CF04FE000E032708
:101D8000040E042303CE05FE04CE06FE057503CE25
:101D9000E9FF04CEEAFFEF503C0BE842E8420D08B1
:101DA00035E1DF6A080EDF5C23E203CEE9FF04CEF3
:101DB000EAFF020EE926000EEA22EE50EFCFEAFF1C
:101DC000E96EEF50E66EDF50EA6A200FE96E040E0E
:101DD000EA22E552E750EF6E03CEE9FF04CEEAFFB8
:101DE000020EE926000EEA22EE2AEF22DF2ADAD7D7
:101DF00003CEE9FF04CEEAFF020EE926000EEA2236
:101E0000200EEE6E040EED6E0DD807D03AD805D038
:101E1000FD0E2115040801E159D8E552E552E7CF3E
:101E2000D9FF12000E010F6B296B2C6B2D6B236BEE
:101E3000106B0BCEE9FF0CCEEAFFEF9E0B750BCEBD
:101E4000E9FF0CCEEAFFEF9E0B7505CEE9FF06CE4B
:101E5000EAFFEF9E136B146B156B186B196B1A6B03
:101E60008FD8000EE66EE66AE66EE66A030EE66E50
:101E7000E66AE6EC01F00B6E060EE15E0B50D4EF65
:101E80000BF0020E0E01105D02E194EF0CF0106BEE
:101E900023511AE105CEE9FF06CEEAFFEE52080E05
:101EA000EF6E05CEE9FF06CEEAFF020EE926000E30
:101EB000EA22200EEE6E040EED6E05CEE9FF06CE90
:101EC000EAFF8C0EEF6E1200236B1200D9CFE6FFF3
:101ED000E1CFD9FFE6520BCEE9FF0CCEEAFFEF507F
:101EE000400B01E0010EDF6E0E010B75080E005D68
:101EF0000BE122C438FF0F01385103E00E01100E30
:101F000002D00E01040E006F100526E10BCEE9FF92
:101F10000CCEEAFF020EE926000EEA22280EEE6E33
:101F2000040EED6EA2DC020E0E010F5D06E10BCE7B
:101F3000E9FF0CCEEAFF840E0DD0DF5006E10BCE98
:101F4000E9FF0CCEEAFFC80E05D00BCEE9FF0CCEA0
:101F5000EAFF880EEF6E0FD018AF0CD01B511C118A
:101F600007E005D01CCEFAFF0E011B51F96EFADF17
:101F70000E01189F106BE552E552E7CFD9FF120012
:101F800004012051600BE842E842E842E842E8429E
:101F9000000901E0120021510C0A50E00B0A3FE059
:101FA0000C0A31E0010A22E00B0A1EE0020A1CE0E2
:101FB000030A18E0080A10E0010A0CE00F0A08E022
:101FC000030A01E012000E01138F080E006F1200C9
:101FD000A4EF0DF033EF0DF00E01010E116F0E0E98
:101FE000126F0CD001EF0EF01FEF10F024510E0114
:101FF000116F126B020E11270E0E12231381010EA8
:10200000146F138F12000E01138F04012451EA6A1A
:10201000020FE96E0E0EEA2222C4EFFF1200000E3C
:10202000E66EE66AE66EE66A020EE66EE66AE6ECE2
:1020300001F00B6E060EE15E0B5012001200D9CFBC
:10204000E6FFE1CFD9FF050EE1260401220510E1EC
:1020500020511F0B00090CE10E01138F030E040128
:10206000215D04E10E01010E1F6F02D00E011F6BF6
:102070000401225101E011D120511F0B020801E09F
:102080000CD124510F0B000901E107D124510F0B92
:10209000010801E202D1200E0E01005D01E0FDD039
:1020A000138F040124BF16D024510F0BE96EEA6A86
:1020B000D890E936EA36070EE9260E0EEA22EECF70
:1020C000DEFFEDCFDDFF24510F0BEA6A260FE96E2C
:1020D0000E0E15D024510F0BE96EEA6AD890E9363E
:1020E000EA360B0EE9260E0EEA22EECFDEFFEDCF2A
:1020F000DDFF24510F0BEA6A240FE96E0E0EEA226F
:10210000020EEFCFDBFFD950020FE96EDACFEAFF04
:10211000EF50010B03E1000EDF9401D0DF8424BFF8
:102120000BD024510F0BE96EEA6AD890E936EA36F3
:10213000070EE9260E0E0AD024510F0BE96EEA6A4B
:10214000D890E936EA360B0EE9260E0EEA22DECFEB
:10215000EEFFDDCFEDFF030E215D20E1DECFE9FFD5
:10216000DDCFEAFFEF50800B11E024BF07D02451F0
:102170000F0BEA6A260FE96E0E0E06D024510F0BE4
:10218000EA6A240FE96E0E0EEA22EF82840EDECF99
:10219000E9FFDDCFEAFFE850EF127FD0DF74DECF3A
:1021A000E9FFDDCFEAFFEF50800B1BE0DECFE9FF58
:1021B000DDCFEAFFEF9EDECFE9FFDDCFEAFFEF8C58
:1021C000020EE66EE66ADECFE6FFDDCFE6FF050E25
:1021D000E66EE66AE6EC01F00B6E060EE15E0B5071
:1021E00005D0DECFE9FFDDCFEAFFEF8CDF74D950F9
:1021F000020FE96EDACFEAFFEF50020B07E1DECF04
:10220000E9FFDDCFEAFFEF50800B2BE0040124BF94
:1022100007D024510F0BEA6A260FE96E0E0E06D086
:1022200024510F0BEA6A240FE96E0E0EEA22EF9298
:102230003B0E0B6EDECFE9FFDDCFEAFFE850EF1675
:10224000020EE66EE66ADECFE6FFDDCFE6FF050EA4
:10225000E66EE66AE6EC01F00B6E060EE15E0B50F0
:1022600007D03B0EDECFE9FFDDCFEAFFE850EF16E7
:10227000040124510F0B0C6A260F0B6E0F0E0C225B
:10228000030E0BC0DBFF040E0CC0DBFF030EDBCF25
:10229000E9FF040EDBCFEAFFEF90050EE15C02E2FE
:0E22A000E16AE552E16EE552E7CFD9FF120088
:01FFF800AA5E
:01FFF900F710
:01FFFA001DE9
:01FFFB00FF06
:01FFFC0063A1
:01FFFD00F80B
:01FFFE008181
:01FFFF00F110
:00000001FF
