:0400000029EF0BF0E9
:1000080000C01BF001C01AF002C019F003C018F0BC
:1000180004C017F005C016F00BC015F0E1CF22F0B0
:10002800E2CF23F0E9CF20F0EACF21F0F5CF1FF09F
:10003800F8CF1CF0F7CF1DF0F6CF1EF090EC0AF0C9
:100048001FC0F5FF1CC0F8FF1DC0F7FF1EC0F6FF5C
:100058001BC000F01AC001F019C002F018C003F06C
:1000680017C004F016C005F015C00BF020C0E9FF5A
:0E00780021C0EAFF22C0E1FF23C0E2FF110019
:10008600000E056E040E066E83C003F0000E046EAD
:1000960003360436039003360436039084C000F01A
:1000A600000E016E00360136009000500326015006
:1000B600042203C001F004C002F0013601900236AA
:1000C60001360190023601C003F002C004F004328A
:1000D6000332049E04BC048E04320332049E04BC24
:1000E600048E03C000F004C001F000360090013613
:1000F600003600900136055000260650012200C049
:1001060005F001C006F000C0E1FF01C0E2FFE69E77
:1001160000018451000A12E183C000F0000E016E56
:100126000036009001363D0E0024E16E000E0120DF
:10013600E26E05C0E6FF06C0E6FF11D083C000F000
:10014600000E016E003600900136410E0024E16E6D
:10015600000E0120E26E05C0E6FF06C0E6FF05C000
:10016600E1FF06C0E2FFE69C040E0524E16E000EE8
:080176000620E26EE68C120087
:0E017E00800E00018311006E00C05CF01200C4
:10018C0083C059F084C05AF085C05DF086C05EF023
:10019C00800E00018711006E008000C05CF0120020
:1001AC0083C059F084C05AF085C05BF086C05DF006
:1001BC0087C05EF0800E00018811006E00C05CF0FC
:0201CC0012001F
:1001CE0020C401F01F0E01160150010A01E08BD070
:1001DE0004012451000A01E086D02151060A38E1BB
:1001EE002DD05350010A13E14C0E0001836F170EF0
:1001FE00846F000E856F120E8327000E84238523D5
:10020E00090E866F000E876F400E886FC8DF20D0F4
:10021E005350010A0EE10001970E836F170E846F83
:10022E00000E856F210E866F000E876F400E886F51
:10023E00B6DF0ED00001836B9BDF0AD00401235181
:10024E00210ACFE02351220AE3E02351230AF2E0F0
:10025E0020C401F0600E0116050E006E005004E081
:10026E000132019EFF0FFBD70150010A01E03BD086
:10027E0027D039D038D0560E0001836F000E846F10
:10028E00010E856F000E866F400E876F78DF2BD0C4
:10029E000001836B6DDF23C456F025D000015F0E85
:1002AE00836F000E846F010E856F000E866F876B55
:1002BE0066DF19D00001836B5BDF22C45FF013D0C1
:1002CE0004012151010AD5E02151090AD3E021513F
:1002DE00020AD1E021510A0ADBE02151030ADEE0D5
:0802EE0021510B0AE7E01200A8
:1002F600700EE16E0F0EE26E00017E51E126D8B05F
:10030600E22A7FC0E6FF7FA504D07EC083F0846B1F
:10031600B7DE7FA305D07EC083F0010E846FB0DE0A
:020326001200C3
:1003280000017F51000A12E07EC000F0000E016E4D
:10033800003600900136410E0024E96E000E0120BF
:10034800EA6EEECF04F0EECF05F011D07EC000F0DB
:10035800000E016E0036009001363D0E0024E96E55
:10036800000E0120EA6EEECF04F0EECF05F0020E8B
:100378000424E16E000E0520E26E80C0E6FF81C015
:10038800E6FF010E0424E16E000E0520E26E82C035
:10039800E6FF04C0E9FF05C0EAFFEECF00F004C0A5
:1003A800E1FF05C0E2FF400E0014E66E04C0E9FF5D
:1003B80005C0EAFFEECF00F004C0E1FF05C0E2FF90
:1003C800880E0010E66E7F51000A1BE07EC000F028
:1003D800000E016E003600900136410E0024026EB8
:1003E800000E0120036E02C0E9FF03C0EAFF040EFD
:1003F800EE18006E02C0E1FF03C0E2FF00C0E6FF96
:100408001AD07EC000F0000E016E00360090013652
:100418003D0E0024026E000E0120036E02C0E9FFAB
:1004280003C0EAFF040EEE18006E02C0E1FF03C02D
:10043800E2FF00C0E6FF04C000F005C001F01200B2
:100448002E5215E0010E00017E6F1E0E7F6F4FDFEA
:10045800010E7E6F7F6B2FC080F030C081F0400EA0
:10046800826F5EDF00C03AF001C03BF014D000019B
:10047800010E7E6F1E0E7F6F3ADF010E7E6F7F6B5F
:100488002FC080F030C081F0400E826F49DF00C07D
:080498003AF001C03BF0120034
:0804A0002E5201E094DE12006F
:1004A80078C002F079C003F07BC000F07CC001F096
:1004B800010E00017B5F000E7C5B0050011009E01B
:1004C80002C0E1FF03C0E2FF7AC0E6FF024A032A46
:0404D800EBD712004C
:1004DC000CD0B4DF3CD03BD0DDDF39D038D037D0B6
:1004EC0036D035D0000033D032D0000E000179194F
:1004FC0002E1010E7819EDE0000E791902E1020E0D
:10050C007819E9E0000E791902E1030E7819E4E09C
:10051C007951000A02E1730E7819E0E07951000A72
:10052C0002E1750E7819DBE07951000A02E1740ED4
:10053C007819D6E079513F0A02E1FF0E7819D1E023
:10054C007951000A02E1720E7819CCE0CDD7010E78
:04055C00006E12001B
:100560000B6A0A6A096A00500402F4CF09F0F3CF5B
:1005700008F001500502F4CF0BF0F3CF0AF0005061
:100580000502F3500926F4500A22E86A0B220150B2
:100590000402F3500926F4500A22E86A0B2208C02C
:1005A00000F009C001F00AC002F00BC003F0120015
:1005B000F250026EF29E0500FF6A0150FE6E00507E
:0805C000FD6E02BEF28E120076
:1005C80004012051800AD8A471D0C00E5C6E64D09A
:1005D800D80E006E170E016E000E026E00C059F0A4
:1005E80001C05AF002C05BF0120E5D6E000E5E6E26
:1005F8005DD0030E006E000E016E22C404F0000EE2
:10060800056EAADF310E0024E96E000E0120EA6EA5
:10061800EECF59F0EECF5AF0EECF5BF0020E592430
:10062800F66E000E5A20F76E000E5B20F86E090079
:10063800F5CF00F00900F5CF01F000C05DF001C072
:100648005EF034D0030E225D23E2030E006E000E2E
:10065800016E22C404F0000E056E7EDF250E002414
:10066800E96E000E0120EA6EEECF59F0EECF5AF097
:10067800EECF5BF059C0F6FF5AC0F7FF5BC0F8FF3A
:100688000900F5CF00F000C05DF0000E5E6E01D0ED
:100698005C6A0CD05C6A0AD02351010A99E02351A4
:0E06A800020AA7E02351030ACDE0F4D71200A6
:1006B6005C8E710E0001786F0F0E796F7A6B010EEA
:1006C6007B6F000E7C6FEDDE580E786F000E796F33
:1006D6007A6B010E7B6F000E7C6FE3DE22C453F053
:1006E6005350000A03E1100E3C6E0FD0200E3C6EF4
:1006F600010E786F000E796F530E7A6F000E7B6FC6
:0C070600010E7C6F000E7D6FE6DE12001D
:10071200000E5E5C02E1080E5D5C10E25DC003F05B
:100722005EC004F02450000A03E1010E246E05D0DD
:100732002450010A02E1020E246E04D0080E036E58
:10074200000E046E41C0E1FF42C0E2FFE69241C0EA
:10075200E1FF42C0E2FFE69041C0E9FF42C0EAFF8A
:10076200EECF00F041C0E1FF42C0E2FF04500010B2
:10077200E66E010E4124E16E000E4220E26E03C0DD
:10078200E6FF03505D5C006E04505E58016E00C0CF
:100792005DF001C05EF0280E386E040E396E5CB05A
:1007A2002FD0035004102BE059C0F6FF5AC0F7FFB8
:1007B2005BC0F8FF0900F5CF00F038C0E1FF39C097
:1007C200E2FF00C0E6FF384A392A010E5924006EC2
:1007D200000E5A20016E000E5B20026E00C059F01E
:1007E20001C05AF002C05BF0010E035C006E000E05
:1007F2000458016E00C003F001C004F0D2D724D027
:100802000350041021E059C0E9FF5AC0EAFF38C082
:10081200E1FF39C0E2FFEECFE6FF384A392A010E86
:100822005924006E000E5A20016E00C059F001C01A
:100832005AF0010E035C006E000E0458016E00C0F7
:0A08420003F001C004F0DCD712003F
:10084C0004012251010A0FE120C401F01F0E011610
:10085C000150000A08E15C8E2151030A03E1010EEC
:10086C00376E01D0376A2251000AD8A489D020C42F
:10087C0001F01F0E01160150020AD8A481D024C425
:10088C0001F00F0E01160150000AD8B479D05C8E1D
:10089C0024BF16D024C403F00F0E031603C000F0BF
:1008AC00000E016E0036009001363D0E0024E96EFC
:1008BC00000E0120EA6EEECF04F0EECF05F015D05D
:1008CC0024C403F00F0E031603C000F0000E016EDB
:1008DC00003600900136410E0024E96E000E012016
:1008EC00EA6EEECF04F0EECF05F02151030A07E1DA
:1008FC0004C0E1FF05C0E2FF840EE66E41D024C4C3
:10090C0000F00F0E0016700E026E0F0E036E0050EC
:10091C000226D8B0032A02C0E9FF03C0EAFFEECFDB
:10092C0000F0EECF01F0009002C0E1FF03C0E2FF47
:10093C0000C0E6FF01C0E6FF24AF11D004C0E1FF08
:10094C0005C0E2FFE66A040E0418006E00C004F055
:10095C0004C0E1FF05C0E2FF400EE66E11D004C0FA
:10096C00E1FF05C0E2FF880EE66E040E0418006E6F
:10097C0000C004F004C0E1FF05C0E2FFC80EE66E43
:02098C00120057
:10098E000401286B296B42D05C8E28813750010AF6
:10099E00D8B4288350D05C8E4ED05C8E24BF16D037
:1009AE0024C403F00F0E031603C000F0000E016EF8
:1009BE000036009001363D0E0024E96E000E012037
:1009CE00EA6EEECF04F0EECF05F015D024C403F09E
:1009DE000F0E031603C000F0000E016E00360090DD
:1009EE000136410E0024E96E000E0120EA6EEECFB4
:1009FE0004F0EECF05F004C0E9FF05C0EAFFEECF2C
:100A0E0001F001A402D0010E286F15D020C401F010
:100A1E001F0E01160150000AB7E020C401F01F0E90
:100A2E0001160150010AB7E020C401F01F0E011695
:100A3E000150020AB2E05CAE07D0280E596E040EC9
:0A0A4E005A6E5C80020E5D6E12000D
:100A58000001606B41C0E1FF42C0E2FFE66A040E9C
:100A68004118E16E42C0E2FF000EE21AE66A47AEA4
:100A780013D0000E006E4D1808E100504C1805E127
:100A880000504B1802E14A50000A05E04AC000F045
:0A0A98004BC001F089DD479E1200FB
:100AA200010E00016125E96E000E6221EA6EEECFB1
:100AB20000F000C076F0000E495C02E17651485C1D
:100AC20003E248C076F00AD07651485C006E000E10
:100AD2004958016E00C048F001C049F0776B765169
:100AE200775D1CE2280EE96E040EEA6E7751E92664
:100AF200D8B0EA2AEECF00F045C0E1FF46C0E2FFDF
:100B020000C0E6FF010E4524006E000E4620016E75
:100B120000C045F001C046F0772BE1D7000E006E11
:100B22004950005C02E14850000828E2010E6325AA
:100B3200E16E000E6421E26E080EE66E020E63257F
:100B4200E16E000E6421E26E280EE66E040EE66E81
:100B520061C0E9FF62C0EAFFEECF00F000BC07D03F
:100B620063C0E1FF64C0E2FFC80EE66E06D063C058
:100B7200E1FF64C0E2FF880EE66E2BD0010E632512
:100B8200E16E000E6421E26E080EE66E020E63252F
:100B9200E16E000E6421E26E200EE66E040EE66E39
:100BA20063C0E1FF64C0E2FF840EE66E000E006ED9
:100BB2004D1808E100504C1805E100504B1802E1B5
:100BC2004A50000A05E04AC000F04BC001F0EFDCD9
:040BD200479E120028
:100BD60020C401F0600E0116050E006E005004E000
:100BE6000132019EFF0FFBD70150000A01E062D0DF
:100BF6003ED05C8E080E3C6E5DD0E3DC5BD058DDEB
:100C060059D0530E596E000E5A6E5C80010E5D6E01
:100C16005C8E50D0B9DE4ED016DE4CD0580E006E2B
:100C2600000E016E24510026D8B0012A00C059F0EA
:100C360001C05AF05C80010E5D6E5C8E3BD05C8E0E
:100C4600580EE16E000EE26E2451E126D8B0E22A7B
:100C560022C4E6FF2FD0020E0001786F000E796FD6
:100C66007A6B7B6B7C6B7D6B36DC24D023D00401E6
:100C76002151050ABEE02151060ABFE02151090AA9
:100C8600BEE02151080ABDE02151000AC3E021510E
:100C9600010AC2E02151030ABFE021510A0ABEE05F
:100CA60021510B0ACCE02151070AD5E021510C0A4B
:060CB600DDE0DCD71200B6
:100CBC006D985CBE4BD047AE29D0020E0001606F20
:100CCC00010E4124E16E000E4220E26EE66A41C044
:100CDC00E1FF42C0E2FFC80EE66E010E6325E16E35
:100CEC00000E6421E26E080EE66E020E6325E16EC4
:100CFC00000E6421E26E280EE66E040EE66E63C0F2
:100D0C00E1FF64C0E2FFC80EE66E1FD00001010EC9
:100D1C006325E16E000E6421E26E080EE66E020E93
:100D2C006325E16E000E6421E26E200EE66E040E69
:100D3C00E66E63C0E1FF64C0E2FF8C0EE66E41C05C
:100D4C00E1FF42C0E2FF840EE66E7FD047BE7DD04D
:100D5C00040120AF52D05E50275D02E15D50265D4C
:100D6C0004E226C45DF027C45EF0CDDC010E000168
:100D7C00606F010E6325E16E000E6421E26E080EB9
:100D8C00E66E020E6325E16E000E6421E26E200E0B
:100D9C00E66E040EE66E63C0E1FF64C0E2FF800EF7
:100DAC00E66E576A010E6125E16E000E6221E26E5D
:100DBC00080EE66E020E6125E16E000E6221E26EF7
:100DCC00200EE66E040EE66E61C0E1FF62C0E2FF2B
:100DDC00840EE66E010E576E020E4124E16E000E7B
:100DEC004220E26E280EE66E040EE66E41C0E1FF74
:100DFC0042C0E2FFC80EE66E28D00001020E606F02
:100E0C00010E4124E16E000E4220E26EE66A41C002
:100E1C00E1FF42C0E2FFC80EE66E010E6325E16EF3
:100E2C00000E6421E26E080EE66E020E6325E16E82
:100E3C00000E6421E26E280EE66E040EE66E63C0B0
:0C0E4C00E1FF64C0E2FFC80EE66E120079
:100E580000016051020A02E120DE1FD0F9DD57507F
:100E6800000A1AE1010E00016325E16E000E6421FB
:100E7800E26E080EE66E020E6325E16E000E642136
:100E8800E26E200EE66E040EE66E63C0E1FF64C0FB
:0C0E9800E2FF8C0EE66E01D0576A1200DB
:100EA40041C0E9FF42C0EAFFEECF00F0000E00BCF3
:100EB400010E0001756F040E4118006E00C041F070
:100EC4003C50080A0AE122C46EFF6E50000803E297
:100ED400100E3C6E02D0040E3C6E00016051010AFB
:100EE4002BE1020E4124E16E000E4220E26E280E38
:100EF400006E040E016E00C0E6FF01C0E6FF07DCD1
:100F04002450020A07E141C0E1FF42C0E2FF840E1F
:100F1400E66E11D000017551000A07E141C0E1FFFE
:100F240042C0E2FFC80EE66E06D041C0E1FF42C0F7
:0C0F3400E2FF880EE66E01D08DDD120099
:100F400000016F51000A12E06EC000F0000E016E49
:100F5000003600900136410E0024E96E000E01209B
:100F6000EA6EEECF04F0EECF05F011D06EC000F0C7
:100F7000000E016E0036009001363D0E0024E96E31
:100F8000000E0120EA6EEECF04F0EECF05F0020E67
:100F90000424E16E000E0520E26E70C0E6FF71C011
:100FA000E6FF010E0424E16E000E0520E26E72C021
:100FB000E6FF04C0E9FF05C0EAFFEECF00F004C081
:100FC000E1FF05C0E2FF400E0014E66E04C0E9FF39
:100FD00005C0EAFFEECF00F004C0E1FF05C0E2FF6C
:100FE000880E0010E66E6F51000A1BE06EC000F024
:100FF000000E016E003600900136410E0024026E94
:10100000000E0120036E02C0E9FF03C0EAFF040ED8
:10101000EE18006E02C0E1FF03C0E2FF00C0E6FF71
:101020001AD06EC000F0000E016E0036009001363E
:101030003D0E0024026E000E0120036E02C0E9FF87
:1010400003C0EAFF040EEE18006E02C0E1FF03C009
:10105000E2FF00C0E6FF04C000F005C001F012008E
:0E106000160E6F6E9F0E6B6E7B0E696E120089
:10106E004C0E316E170E326E000E336EEA0E256E7A
:10107E00170E266E000E276E750E286E170E296E31
:10108E00000E2A6EB80E2B6E170E2C6E000E2D6EE5
:02109E0012003E
:1010A0006EC002F06FC003F071C000F072C001F0BA
:1010B000010E0001715F000E725B0050011009E02B
:1010C00002C0E1FF03C0E2FF70C0E6FF024A032A4C
:0410D000EBD7120048
:1010D400000E00016F1902E1000E6E1902E1016AAF
:1010E40009D06EC0E9FF6FC0EAFFEECF00F0016ADD
:0A10F40000BE012A01C000F0120046
:0A10FE00D08EA28AA08AF28E1200A2
:1011080041C0E9FF42C0EAFFEECF00F000AE05D0D3
:1011180041C0E1FF42C0E2FFE66A246A0001606B59
:101128005D6A5E6A5C6A53DD030E0001786F000E2B
:10113800796F7A6B7B6B7C6B7D6B6EEC02F0BADD42
:02114800120093
:10114A0091DF3A6A3B6A546A556A6A6A686A83DF57
:10115A006D8C6E6A710E00016E6F0F0E6F6F706B81
:10116A00010E716F000E726F96DF6D9C696B080E2F
:10117A00695D16E269C000F0000E016E003600904B
:10118A000136003600900136000E0024E16E040E8E
:10119A000120E26EE66AE66AE66AE66A692BE7D742
:1011AA00160E706E68A603D0F70E6816FBD75C6A37
:1011BA00476A486A496A6D98080E416E040E426E83
:0611CA00536A3C6A1200AA
:1011D000FD0E3614016E026AFF0E0216000E021892
:1011E00002E1000E01186CE17E0E3614016E01C0A2
:1011F00003F00332039E03C000F0000E016E0036C0
:1012000000900136003600900136000E0024026E78
:10121000040E0120036E02C061F003C062F002C040
:1012200063F003C064F0040E00016319006E00C097
:1012300063F002C0E9FF03C0EAFFEECF00F000C098
:1012400001F03C0E01160132019E0132019E015057
:101250000D0A34E1020E6125E96E000E6221EA6E8C
:10126000EECF01F0EECF02F00250040A02E1280EA8
:10127000011822E1020E6125E16E000E6221E26E8C
:10128000200EE66E040EE66E746B080E745D14E2BA
:10129000200EE16E040EE26E7451E126D8B0E22A0F
:1012A000280EE96E040EEA6E7451E926D8B0EA2AD7
:1012B000EECFE6FF742BE9D727DF01D0CDDD0DD0CF
:1012C000FD0E3614016E026AFF0E0216000E0218A1
:0C12D00002E1040E011801E1E5DD12004E
:1012DC00200E3C5C03E36DB201D002D0006A33D027
:1012EC0054C06EF055C06FF0EFDE00522BE16CC0B5
:1012FC006EF0010E6F6F69C070F06AC071F06BC058
:10130C0072F018DE00C054F001C055F04F6A506AFC
:10131C00516A526A54C06EF055C06FF0D5DE00525F
:10132C0008E04F5050105110521002E0006A0BD0E0
:10133C00F1D7010E5424E96E000E5520EA6EEECF63
:08134C0000F001D0006A12005C
:101354003C50000A0AE16D6A696A80DECEDE6DB631
:0C13640002D06D86FCD7010E3C6E12001A
:10137000200E3C5C03E36DB201D002D0006A23D0A2
:101380003AC06EF03BC06FF0A5DE00521BE1010ECB
:101390003A24E96E000E3B20EA6EEECF00F000C06A
:1013A0006DF06CC06EF06F6B69C070F06AC071F068
:1013B0006BC072F0C5DD00C03AF001C03BF06DC0FB
:0813C00000F001D0006A1200E8
:1013C800740E0001786F000E796F7A6B7B6B7C6B03
:1013D8007D6B6EEC02F06D92699468A403D0FB0EED
:0613E8006816FBD712009D
:0413EE00A19A1200AE
:1013F2003DDE3A6A3B6A546A556A6A6A686A2FDE57
:101402006D8C6E6A710E0001786F0F0E796F7A6BB8
:10141200010E7B6F000E7C6F54EC02F06D9C746BBE
:10142200080E745D16E274C000F0000E016E003604
:1014320000900136003600900136000E0024E16E65
:10144200040E0120E26EE66AE66AE66AE66A742B38
:10145200E7D7160E706E68A603D0F70E6816FBD794
:101462005C6A476A486A496A6D98080E416E040EC2
:08147200426E536A3C6A12004D
:10147A0070A019D061C0E9FF62C0EAFFEECF01F0A7
:10148A000150800A0FE141C0E9FF42C0EAFFEECFF6
:10149A0001F00150840A06E161C0E1FF62C0E2FF87
:0C14AA008C0EE66E7090DF0E68161200CB
:1014B6006984EF0E68166D82750E0001786F000E56
:1014C600796F7A6B7B6B7C6B7D6B6EEC02F0120036
:1014D6000900F5CFE6FF0006FBE10106F9E112007F
:1014E600010E2E6E65C02FF066C030F067C034F076
:1014F60068C035F027DE010E016E0150010A01E1D8
:0415060026DF1200CA
:10150A0065C069F066C06AF067C06BF0010E000141
:06151A006C6FDFDE120021
:101520003C50010A07E16DBA05D0686A6980698894
:10153000020E3C6E68A405D069A403D0FB0E6816A9
:1015400043DF6DA202D053DF78D068A018D069A025
:1015500016D04FDF040E3C6E200E0401026F040E05
:10156000036F080E016F000E0015006E00C000F43E
:101570008C0E0011006E00C000F4FE0E681668A804
:1015800005D069A803D097DFEF0E681668AC11D0BC
:1015900069AC0FD0730E0001786F000E796F7A6B13
:1015A0007B6B010E7C6F000E7D6F6EEC02F0BF0E48
:1015B000681668AA03D069AA01D05FDF68A210D0BC
:1015C00069A20ED0FF0E0001786F3F0E796F7A6B23
:1015D0007B6B010E7C6F000E7D6F6EEC02F06A6A11
:1015E000040E3C5C02E203DF28D069A625D000018E
:1015F000736B040E735D20E268A61AD06CCF36F0D0
:10160000F70E6816780E3614016E0150000A02E1DA
:10161000DFDD0DD0720E0001786F000E796F360E8F
:101620007A6F000E7B6F7C6B7D6B6EEC02F001D0ED
:0C16300003D00001732BDDD7DADE1200BE
:10163C002FC069F030C06AF0400E00016B6F010ED4
:06164C006C6F90DE12003D
:101652000F0EC112070EB412956A936AFF0E836EC3
:10166200070E0B6E170E0C6E6A0E0D6E0D2EFED748
:101672000C2EFCD70B2EFAD70000836A070E0B6ED6
:10168200170E0C6E6A0E0D6E0D2EFED70C2EFCD7A9
:101692000B2EFAD70000000E0001656F050E666F73
:1016A200400E676F050E686F1DDFFF0E836E070E1B
:1016B2000B6E170E0C6E6A0E0D6E0D2EFED70C2ED3
:1016C200FCD70B2EFAD70000836A070E0B6E170E9B
:1016D2000C6E6A0E0D6E0D2EFED70C2EFCD70B2E45
:1016E200FAD70000AADF005201E1FCD74E6A400E91
:1016F2004E5C1EE2400EE16E050EE26E4E50E12699
:10170200D8B0E22A000EE96E050EEA6E4E50E926C6
:10171200D8B0EA2AEECFE6FF000EE96E050EEA6EB9
:101722004E50E926D8B0EA2AEECF81FF4E2ADFD703
:10173200400E0001656F050E666F400E676FE4DEB6
:0A174200005201E1F5D7B1D7FFD73F
:10174C000902290001010080320904000002030093
:10175C00000009210101000122210007058103403D
:09176C0000010705010340000122
:1017750022034D0069006B0072006F0065006C006C
:1017850065006B00740072006F006E0069006B00ED
:021795006100F1
:101797000600FF0901A10119012940150026FF00D4
:1017A70075089540810219012940750895409102F5
:0117B700C071
:1017B800200355005300420020004800490044001F
:1017C80020004C006900620072006100720079001C
:1017D8001201000200000008341201000100010299
:0217E8000001FE
:0417EA0004030904E7
:020000040030CA
:0E000000240E3F1EFF8381FF0FC00FE00F4054
:00000001FF
