:040000002BEF0BF0E7
:1000080000C01BF001C01AF002C019F003C018F0BC
:1000180004C017F005C016F00BC015F0E1CF22F0B0
:10002800E2CF23F0E9CF20F0EACF21F0F5CF1FF09F
:10003800F8CF1CF0F7CF1DF0F6CF1EF092EC0AF0C7
:100048001FC0F5FF1CC0F8FF1DC0F7FF1EC0F6FF5C
:100058001BC000F01AC001F019C002F018C003F06C
:1000680017C004F016C005F015C00BF020C0E9FF5A
:0E00780021C0EAFF22C0E1FF23C0E2FF110019
:10008600000E056E040E066E83C003F0000E046EAD
:1000960003360436039003360436039084C000F01A
:1000A600000E016E00360136009000500326015006
:1000B600042203C001F004C002F0013601900236AA
:1000C60001360190023601C003F002C004F004328A
:1000D6000332049E04BC048E04320332049E04BC24
:1000E600048E03C000F004C001F000360090013613
:1000F600003600900136055000260650012200C049
:1001060005F001C006F000C0E1FF01C0E2FFE69E77
:1001160000018451000A12E183C000F0000E016E56
:100126000036009001364A0E0024E16E000E0120D2
:10013600E26E05C0E6FF06C0E6FF11D083C000F000
:10014600000E016E0036009001364E0E0024E16E60
:10015600000E0120E26E05C0E6FF06C0E6FF05C000
:10016600E1FF06C0E2FFE69C040E0524E16E000EE8
:080176000620E26EE68C120087
:0E017E00800E00018311006E00C05EF01200C2
:10018C0083C05BF084C05CF085C05FF086C060F01B
:10019C00800E00018711006E008000C05EF012001E
:1001AC0083C05BF084C05CF085C05DF086C05FF0FE
:1001BC0087C060F0800E00018811006E00C05EF0F8
:0201CC0012001F
:1001CE0020C401F01F0E01160150010A01E08BD070
:1001DE0004012451000A01E086D02151060A38E1BB
:1001EE002DD04750010A13E1320E0001836F170E16
:1001FE00846F000E856F120E8327000E84238523D5
:10020E00090E866F000E876F400E886FC8DF20D0F4
:10021E004750010A0EE100015B0E836F170E846FCB
:10022E00000E856F210E866F000E876F400E886F51
:10023E00B6DF0ED00001836B9BDF0AD00401235181
:10024E00210ACFE02351220AE3E02351230AF2E0F0
:10025E0020C401F0600E0116050E006E005004E081
:10026E000132019EFF0FFBD70150010A01E03BD086
:10027E0027D039D038D0430E0001836F000E846F23
:10028E00010E856F000E866F400E876F78DF2BD0C4
:10029E000001836B6DDF23C443F025D00001440EB3
:1002AE00836F000E846F010E856F000E866F876B55
:1002BE0066DF19D00001836B5BDF22C444F013D0DC
:1002CE0004012151010AD5E02151090AD3E021513F
:1002DE00020AD1E021510A0ADBE02151030ADEE0D5
:0802EE0021510B0AE7E01200A8
:1002F600700EE16E0F0EE26E00017E51E126D8B05F
:10030600E22A7FC0E6FF7FA504D07EC083F0846B1F
:10031600B7DE7FA305D07EC083F0010E846FB0DE0A
:020326001200C3
:1003280000017F51000A12E07EC000F0000E016E4D
:100338000036009001364E0E0024E96E000E0120B2
:10034800EA6EEECF04F0EECF05F011D07EC000F0DB
:10035800000E016E0036009001364A0E0024E96E48
:10036800000E0120EA6EEECF04F0EECF05F0020E8B
:100378000424E16E000E0520E26E80C0E6FF81C015
:10038800E6FF010E0424E16E000E0520E26E82C035
:10039800E6FF04C0E9FF05C0EAFFEECF00F004C0A5
:1003A800E1FF05C0E2FF400E0014E66E04C0E9FF5D
:1003B80005C0EAFFEECF00F004C0E1FF05C0E2FF90
:1003C800880E0010E66E7F51000A1BE07EC000F028
:1003D800000E016E0036009001364E0E0024026EAB
:1003E800000E0120036E02C0E9FF03C0EAFF040EFD
:1003F800EE18006E02C0E1FF03C0E2FF00C0E6FF96
:100408001AD07EC000F0000E016E00360090013652
:100418004A0E0024026E000E0120036E02C0E9FF9E
:1004280003C0EAFF040EEE18006E02C0E1FF03C02D
:10043800E2FF00C0E6FF04C000F005C001F01200B2
:10044800425215E0010E00017E6F1E0E7F6F4FDFD6
:10045800010E7E6F7F6B40C080F041C081F0400E7E
:10046800826F5EDF00C032F001C033F014D00001AB
:10047800010E7E6F1E0E7F6F3ADF010E7E6F7F6B5F
:1004880040C080F041C081F0400E826F49DF00C05B
:0804980032F001C033F0120044
:0804A000425201E094DE12005B
:1004A80078C002F079C003F07BC000F07CC001F096
:1004B800010E00017B5F000E7C5B0050011009E01B
:1004C80002C0E1FF03C0E2FF7AC0E6FF024A032A46
:0404D800EBD712004C
:1004DC000CD0B4DF3CD03BD0DDDF39D038D037D0B6
:1004EC0036D035D0000033D032D0000E000179194F
:1004FC0002E1010E7819EDE0000E791902E1020E0D
:10050C007819E9E0000E791902E1030E7819E4E09C
:10051C007951000A02E1730E7819E0E07951000A72
:10052C0002E1750E7819DBE07951000A02E1740ED4
:10053C007819D6E079513F0A02E1FF0E7819D1E023
:10054C007951000A02E1720E7819CCE0CDD7010E78
:04055C00006E12001B
:100560000B6A0A6A096A00500402F4CF09F0F3CF5B
:1005700008F001500502F4CF0BF0F3CF0AF0005061
:100580000502F3500926F4500A22E86A0B220150B2
:100590000402F3500926F4500A22E86A0B2208C02C
:1005A00000F009C001F00AC002F00BC003F0120015
:1005B000F250026EF29E0500FF6A0150FE6E00507E
:0805C000FD6E02BEF28E120076
:1005C80004012051800AD8A475D0C00E5E6E67D091
:1005D800960E006E170E016E000E026E00C05BF0E4
:1005E80001C05CF002C05DF0120E5F6E000E0001EB
:1005F800606F60D0030E006E000E016E22C404F01E
:10060800000E056EA9DF2D0E0024E96E000E0120F4
:10061800EA6EEECF5BF0EECF5CF0EECF5DF0020E4F
:100628005B24F66E000E5C20F76E000E5D20F86EFF
:100638000900F5CF00F00900F5CF01F000C05FF028
:1006480001C060F037D0030E0401225D24E2030EDE
:10065800006E000E016E22C404F0000E056E7CDFF1
:10066800240E0024E96E000E0120EA6EEECF5BF046
:10067800EECF5CF0EECF5DF05BC0F6FF5CC0F7FF3D
:100688005DC0F8FF0900F5CF00F000C05FF0000E74
:100698000001606F01D05E6A0DD05E6A0BD0040164
:1006A8002351010A95E02351020AA4E02351030AC9
:0606B800CAE0F3D71200B6
:1006BE005E8E710E0001786F0F0E796F7A6B010EE0
:1006CE007B6F000E7C6FE9DE3A0E786F000E796F4D
:1006DE007A6B010E7B6F000E7C6FDFDE22C447F05B
:1006EE004750000A03E1100E346E0FD0200E346E08
:1006FE00010E786F000E796F470E7A6F000E7B6FCA
:0C070E00010E7C6F000E7D6FE2DE120019
:10071A00000E0001605D02E1080E5F5C10E25FC03E
:10072A0003F060C004F03C50000A03E1010E3C6E85
:10073A0005D03C50010A02E1020E3C6E04D0080EBC
:10074A00036E000E046E00014EC0E1FF4FC0E2FFCF
:10075A00E6924EC0E1FF4FC0E2FFE6904EC0E9FFCD
:10076A004FC0EAFFEECF00F04EC0E1FF4FC0E2FFFC
:10077A0004500010E66E010E4E24E16E000E4F206A
:10078A00E26E03C0E6FF03505F5C006E04506059DE
:10079A00016E00C05FF001C060F0280E376E040ED3
:1007AA00386E5EB02FD0035004102BE05BC0F6FF0A
:1007BA005CC0F7FF5DC0F8FF0900F5CF00F037C055
:1007CA00E1FF38C0E2FF00C0E6FF374A382A010ECF
:1007DA005B24006E000E5C20016E000E5D20026E2E
:1007EA0000C05BF001C05CF002C05DF0010E035C6A
:1007FA00006E000E0458016E00C003F001C004F040
:10080A00D2D724D00350041021E05BC0E9FF5CC0BA
:10081A00EAFF37C0E1FF38C0E2FFEECFE6FF374A12
:10082A00382A010E5B24006E000E5C20016E00C0A7
:10083A005BF001C05CF0010E035C006E000E045810
:0E084A00016E00C003F001C004F0DCD7120004
:1008580004012251010A0FE120C401F01F0E011604
:100868000150000A08E15E8E2151030A03E1010EDE
:100878003D6E01D03D6A2251000AD8A489D020C417
:1008880001F01F0E01160150020AD8A481D024C419
:1008980001F00F0E01160150000AD8B479D05E8E0F
:1008A80024BF16D024C403F00F0E031603C000F0B3
:1008B800000E016E0036009001364A0E0024E96EE3
:1008C800000E0120EA6EEECF04F0EECF05F015D051
:1008D80024C403F00F0E031603C000F0000E016ECF
:1008E8000036009001364E0E0024E96E000E0120FD
:1008F800EA6EEECF04F0EECF05F02151030A07E1CE
:1009080004C0E1FF05C0E2FF840EE66E41D024C4B6
:1009180000F00F0E0016700E026E0F0E036E0050E0
:100928000226D8B0032A02C0E9FF03C0EAFFEECFCF
:1009380000F0EECF01F0009002C0E1FF03C0E2FF3B
:1009480000C0E6FF01C0E6FF24AF11D004C0E1FFFC
:1009580005C0E2FFE66A040E0418006E00C004F049
:1009680004C0E1FF05C0E2FF400EE66E11D004C0EE
:10097800E1FF05C0E2FF880EE66E040E0418006E63
:1009880000C004F004C0E1FF05C0E2FFC80EE66E37
:0209980012004B
:10099A000401286B296B42D05E8E28813D50010AE2
:1009AA00D8B4288350D05E8E4ED05E8E24BF16D027
:1009BA0024C403F00F0E031603C000F0000E016EEC
:1009CA000036009001364A0E0024E96E000E01201E
:1009DA00EA6EEECF04F0EECF05F015D024C403F092
:1009EA000F0E031603C000F0000E016E00360090D1
:1009FA0001364E0E0024E96E000E0120EA6EEECF9B
:100A0A0004F0EECF05F004C0E9FF05C0EAFFEECF1F
:100A1A0001F001A402D0010E286F15D020C401F004
:100A2A001F0E01160150000AB7E020C401F01F0E84
:100A3A0001160150010AB7E020C401F01F0E011689
:100A4A000150020AB2E05EAE07D0280E5B6E040EB9
:0A0A5A005C6E5E80020E5F6E1200FB
:100A6400366A4EC0E1FF4FC0E2FFE66A040E4E183C
:100A7400E16E4FC0E2FF000EE21AE66A54AE13D0F4
:100A8400000E006E5A1808E10050591805E1005094
:100A9400581802E15750000A05E057C000F058C04A
:080AA40001F084DD549E1200F4
:100AAC00010E4524E96E000E4620EA6EEECF00F0F2
:100ABC0000C076F0000E565C03E100017651555CE7
:100ACC0003E255C076F00BD000017651555C006EF8
:100ADC00000E5658016E00C055F001C056F00001D2
:100AEC00776B7651775D1CE2280EE96E040EEA6E88
:100AFC007751E926D8B0EA2AEECF00F052C0E1FFD8
:100B0C0053C0E2FF00C0E6FF010E5224006E000E3F
:100B1C005320016E00C052F001C053F0772BE1D787
:100B2C00000E006E5650005C02E15550000828E2A1
:100B3C00010E3024E16E000E3120E26E080EE66EDE
:100B4C00020E3024E16E000E3120E26E280EE66EAD
:100B5C00040EE66E45C0E9FF46C0EAFFEECF00F09A
:100B6C0000BC07D030C0E1FF31C0E2FFC80EE66E1A
:100B7C0006D030C0E1FF31C0E2FF880EE66E2BD00C
:100B8C00010E3024E16E000E3120E26E080EE66E8E
:100B9C00020E3024E16E000E3120E26E200EE66E65
:100BAC00040EE66E30C0E1FF31C0E2FF840EE66E4B
:100BBC00000E006E5A1808E10050591805E100505B
:100BCC00581802E15750000A05E057C000F058C011
:080BDC0001F0E8DC549E120058
:100BE40020C401F0600E0116050E006E005004E0F2
:100BF4000132019EFF0FFBD70150000A01E062D0D1
:100C04003ED05E8E080E346E5DD0DCDC5BD055DDEC
:100C140059D0470E5B6E000E5C6E5E80010E5F6EF7
:100C24005E8E50D0B8DE4ED015DE4CD03A0E006E3B
:100C3400000E016E24510026D8B0012A00C05BF0DA
:100C440001C05CF05E80010E5F6E5E8E3BD05E8EF6
:100C54003A0EE16E000EE26E2451E126D8B0E22A8B
:100C640022C4E6FF2FD0020E0001786F000E796FC8
:100C74007A6B7B6B7C6B7D6B2FDC24D023D00401DF
:100C84002151050ABEE02151060ABFE02151090A9B
:100C9400BEE02151080ABDE02151000AC3E0215100
:100CA400010AC2E02151030ABFE021510A0ABEE051
:100CB40021510B0ACCE02151070AD5E021510C0A3D
:060CC400DDE0DCD71200A8
:100CCA006D985EBE49D054AE28D0020E366E010E23
:100CDA004E24E16E000E4F20E26EE66A4EC0E1FF3E
:100CEA004FC0E2FFC80EE66E010E3024E16E000E20
:100CFA003120E26E080EE66E020E3024E16E000E1E
:100D0A003120E26E280EE66E040EE66E30C0E1FF78
:100D1A0031C0E2FFC80EE66E1ED0010E3024E16E2D
:100D2A00000E3120E26E080EE66E020E3024E16EED
:100D3A00000E3120E26E200EE66E040EE66E30C022
:100D4A00E1FF31C0E2FF8C0EE66E4EC0E1FF4FC0FC
:100D5A00E2FF840EE66E7FD054BE7DD0040120AF40
:100D6A0053D0000160510401275D02E15F50265D06
:100D7A0004E226C45FF027C460F0CADC010E366EB6
:100D8A00010E3024E16E000E3120E26E080EE66E8E
:100D9A00020E3024E16E000E3120E26E200EE66E65
:100DAA00040EE66E30C0E1FF31C0E2FF800EE66E4F
:100DBA003B6A010E4524E16E000E4620E26E080EE3
:100DCA00E66E020E4524E16E000E4620E26E200E0B
:100DDA00E66E040EE66E45C0E1FF46C0E2FF840EF1
:100DEA00E66E010E3B6E020E4E24E16E000E4F209F
:100DFA00E26E280EE66E040EE66E4EC0E1FF4FC0AC
:100E0A00E2FFC80EE66E27D0020E366E010E4E24A1
:100E1A00E16E000E4F20E26EE66A4EC0E1FF4FC05F
:100E2A00E2FFC80EE66E010E3024E16E000E31209C
:100E3A00E26E080EE66E020E3024E16E000E3120DC
:100E4A00E26E280EE66E040EE66E30C0E1FF31C097
:080E5A00E2FFC80EE66E120073
:100E62003650020A02E121DE1ED0FBDD3B50000AB1
:100E720019E1010E3024E16E000E3120E26E080EFF
:100E8200E66E020E3024E16E000E3120E26E200E7C
:100E9200E66E040EE66E30C0E1FF31C0E2FF8C0E5A
:080EA200E66E01D03B6A12006C
:100EAA004EC0E9FF4FC0EAFFEECF00F0000E00BCD3
:100EBA00010E0001756F040E4E18006E00C04EF050
:100ECA003450080A0AE122C46EFF6E50000803E299
:100EDA00100E346E02D0040E346E3650010A2BE125
:100EEA00020E4E24E16E000E4F20E26E280E006EB6
:100EFA00040E016E00C0E6FF01C0E6FF09DC3C50AB
:100F0A00020A07E14EC0E1FF4FC0E2FF840EE66E1F
:100F1A0011D000017551000A07E14EC0E1FF4FC030
:100F2A00E2FFC80EE66E06D04EC0E1FF4FC0E2FFF8
:0A0F3A00880EE66E01D091DD120072
:100F440000016F51000A12E06EC000F0000E016E45
:100F54000036009001364E0E0024E96E000E01208A
:100F6400EA6EEECF04F0EECF05F011D06EC000F0C3
:100F7400000E016E0036009001364A0E0024E96E20
:100F8400000E0120EA6EEECF04F0EECF05F0020E63
:100F94000424E16E000E0520E26E70C0E6FF71C00D
:100FA400E6FF010E0424E16E000E0520E26E72C01D
:100FB400E6FF04C0E9FF05C0EAFFEECF00F004C07D
:100FC400E1FF05C0E2FF400E0014E66E04C0E9FF35
:100FD40005C0EAFFEECF00F004C0E1FF05C0E2FF68
:100FE400880E0010E66E6F51000A1BE06EC000F020
:100FF400000E016E0036009001364E0E0024026E83
:10100400000E0120036E02C0E9FF03C0EAFF040ED4
:10101400EE18006E02C0E1FF03C0E2FF00C0E6FF6D
:101024001AD06EC000F0000E016E0036009001363A
:101034004A0E0024026E000E0120036E02C0E9FF76
:1010440003C0EAFF040EEE18006E02C0E1FF03C005
:10105400E2FF00C0E6FF04C000F005C001F012008A
:0E106400160E6F6E9F0E6B6E7B0E696E120085
:10107200320E2D6E170E2E6E000E2F6EA80E246EDF
:10108200170E256E000E266E7C0E276E170E286E2A
:10109200000E296E080E2A6E170E2B6E000E2C6E95
:0210A20012003A
:1010A4006EC002F06FC003F071C000F072C001F0B6
:1010B400010E0001715F000E725B0050011009E027
:1010C40002C0E1FF03C0E2FF70C0E6FF024A032A48
:0410D400EBD7120044
:1010D800000E00016F1902E1000E6E1902E1016AAB
:1010E80009D06EC0E9FF6FC0EAFFEECF00F0016AD9
:0A10F80000BE012A01C000F0120042
:0A110200D08EA28AA08AF28E12009D
:10110C004EC0E9FF4FC0EAFFEECF00F000AE05D0B5
:10111C004EC0E1FF4FC0E2FFE66A3C6A366A5F6A86
:10112C000001606B5E6A58DD030E0001786F000EE3
:10113C00796F7A6B7B6B7C6B7D6B6EEC02F0BFDD39
:02114C0012008F
:10114E0091DF326A336A486A496A6A6A686A83DF7B
:10115E006D8C6E6A710E00016E6F0F0E6F6F706B7D
:10116E00010E716F000E726F96DF6D9C696B080E2B
:10117E00695D16E269C000F0000E016E0036009047
:10118E000136003600900136000E0024E16E040E8A
:10119E000120E26EE66AE66AE66AE66A692BE7D73E
:1011AE00160E706E68A603D0F70E6816FBD75E6A31
:1011BE00546A556A566A6D98080E4E6E040E4F6E3E
:0611CE00476A346A1200BA
:1011D400FD0E3914016E026AFF0E0216000E02188B
:1011E40002E1000E01186CE17E0E3914016E01C09B
:1011F40003F00332039E03C000F0000E016E0036BC
:1012040000900136003600900136000E0024026E74
:10121400040E0120036E02C045F003C046F002C074
:1012240030F003C031F0040E3018006E00C030F00E
:1012340002C0E9FF03C0EAFFEECF00F000C001F0F6
:101244003C0E01160132019E0132019E01500D0A2D
:1012540035E1020E4524E96E000E4620EA6EEECF1B
:1012640001F0EECF02F00250040A02E1280E011848
:1012740023E1020E4524E16E000E4620E26E200EAC
:10128400E66E040EE66E0001746B080E745D14E2E3
:10129400200EE16E040EE26E7451E126D8B0E22A0B
:1012A400280EE96E040EEA6E7451E926D8B0EA2AD3
:1012B400EECFE6FF742BE9D727DF01D0D0DD0DD0C8
:1012C400FD0E3914016E026AFF0E0216000E02189A
:0C12D40002E1040E011801E1E6DD120049
:1012E000200E345C03E36DB201D002D0006A33D02B
:1012F00048C06EF049C06FF0EFDE00522BE16CC0C9
:101300006EF0010E6F6F69C070F06AC071F06BC053
:1013100072F018DE00C048F001C049F0616B626BEA
:10132000636B646B48C06EF049C06FF0D5DE00524D
:1013300008E0615162116311641102E0006A0BD090
:10134000F1D7010E4824E96E000E4920EA6EEECF77
:0813500000F001D0006A120058
:101358003450000A0AE16D6A696A80DECEDE6DB635
:0C13680002D06D86FCD7010E346E12001E
:10137400200E345C03E36DB201D002D0006A23D0A6
:1013840032C06EF033C06FF0A5DE00521BE1010ED7
:101394003224E96E000E3320EA6EEECF00F000C076
:1013A4006DF06CC06EF06F6B69C070F06AC071F064
:1013B4006BC072F0C5DD00C032F001C033F06DC007
:0813C40000F001D0006A1200E4
:1013CC00740E0001786F000E796F7A6B7B6B7C6BFF
:1013DC007D6B6EEC02F06D92699468A403D0FB0EE9
:0613EC006816FBD7120099
:0413F200A19A1200AA
:1013F6003DDE326A336A486A496A6A6A686A2FDE7B
:101406006D8C6E6A710E0001786F0F0E796F7A6BB4
:10141600010E7B6F000E7C6F54EC02F06D9C746BBA
:10142600080E745D16E274C000F0000E016E003600
:1014360000900136003600900136000E0024E16E61
:10144600040E0120E26EE66AE66AE66AE66A742B34
:10145600E7D7160E706E68A603D0F70E6816FBD790
:101466005E6A546A556A566A6D98080E4E6E040E88
:081476004F6E476A346A120050
:10147E0070A019D045C0E9FF46C0EAFFEECF01F0DB
:10148E000150800A0FE14EC0E9FF4FC0EAFFEECFD8
:10149E0001F00150840A06E145C0E1FF46C0E2FFBB
:0C14AE008C0EE66E7090DF0E68161200C7
:1014BA006984EF0E68166D82750E0001786F000E52
:1014CA00796F7A6B7B6B7C6B7D6B6EEC02F0120032
:1014DA000900F5CFE6FF0006FBE10106F9E112007B
:1014EA00010E426E65C040F066C041F067C03EF032
:1014FA0068C03FF027DE010E016E0150010A01E1CA
:04150A0026DF1200C6
:10150E0065C069F066C06AF067C06BF0010E00013D
:06151E006C6FDFDE12001D
:101524003450010A07E16DBA05D0686A6980698898
:10153400020E346E68A405D069A403D0FB0E6816AD
:1015440043DF6DA202D053DF78D068A018D069A021
:1015540016D04FDF040E346E200E0401026F040E09
:10156400036F080E016F000E0015006E00C000F43A
:101574008C0E0011006E00C000F4FE0E681668A800
:1015840005D069A803D097DFEF0E681668AC11D0B8
:1015940069AC0FD0730E0001786F000E796F7A6B0F
:1015A4007B6B010E7C6F000E7D6F6EEC02F0BF0E44
:1015B400681668AA03D069AA01D05FDF68A210D0B8
:1015C40069A20ED0FF0E0001786F3F0E796F7A6B1F
:1015D4007B6B010E7C6F000E7D6F6EEC02F06A6A0D
:1015E400040E345C02E203DF28D069A625D0000192
:1015F400736B040E735D20E268A61AD06CCF39F0C9
:10160400F70E6816780E3914016E0150000A02E1D3
:10161400DFDD0DD0720E0001786F000E796F390E88
:101624007A6F000E7B6F7C6B7D6B6EEC02F001D0E9
:0C16340003D00001732BDDD7DADE1200BA
:1016400040C069F041C06AF0400E00016B6F010EAE
:061650006C6F90DE120039
:101656000F0EC112070EB412FF0E956E936A070E97
:101666000B6E170E0C6E6A0E0D6E0D2EFED70C2E1F
:10167600FCD70B2EFAD70000836A070E0B6E170EE7
:101686000C6E6A0E0D6E0D2EFED70C2EFCD70B2E91
:10169600FAD70000000E0001656F050E666F420E58
:1016A600676F050E686F1EDFC8DF005201E1FCD7C9
:1016B600356A400E355C14E2420EE16E050EE26EAE
:1016C6003550E126D8B0E22A000EE96E050EEA6E24
:1016D6003550E926D8B0EA2AEECFE6FF352AE9D713
:1016E60083CF42F5420E0001656F050E666F400E10
:1016F600676F0ADF005201E1F5D700C581FFD4D735
:02170600FFD70B
:101708002A035600690072007400750061006C00BD
:10171800200050004C004300200054006500720077
:0A1728006D0069006E0061006C00A6
:1017320009022900010100803209040000020300AD
:101742000000092101010001222100070581034057
:091752000001070501034000013C
:10175B000600FF0901A10119012940150026FF0010
:10176B007508954081021901294075089540910231
:01177B00C0AD
:10177C001A034D0069006700750065006C002000BD
:0A178C00530069006C007600610054
:101796001201000200000008953901000100010253
:0217A600000140
:0417A8000403090429
:020000040030CA
:0E000000240E3F1EFF0381FF0FC00FE00F40D4
:00000001FF
